{
  "_format": "hh-sol-artifact-1",
  "contractName": "QuantumNFT",
  "sourceName": "contracts/NFT.sol",
  "abi": [
    {
      "inputs": [
        {
          "internalType": "uint256",
          "name": "nftPrice_",
          "type": "uint256"
        }
      ],
      "stateMutability": "nonpayable",
      "type": "constructor"
    },
    {
      "anonymous": false,
      "inputs": [
        {
          "indexed": true,
          "internalType": "address",
          "name": "owner",
          "type": "address"
        },
        {
          "indexed": true,
          "internalType": "address",
          "name": "approved",
          "type": "address"
        },
        {
          "indexed": true,
          "internalType": "uint256",
          "name": "tokenId",
          "type": "uint256"
        }
      ],
      "name": "Approval",
      "type": "event"
    },
    {
      "anonymous": false,
      "inputs": [
        {
          "indexed": true,
          "internalType": "address",
          "name": "owner",
          "type": "address"
        },
        {
          "indexed": true,
          "internalType": "address",
          "name": "operator",
          "type": "address"
        },
        {
          "indexed": false,
          "internalType": "bool",
          "name": "approved",
          "type": "bool"
        }
      ],
      "name": "ApprovalForAll",
      "type": "event"
    },
    {
      "anonymous": false,
      "inputs": [
        {
          "indexed": true,
          "internalType": "address",
          "name": "previousOwner",
          "type": "address"
        },
        {
          "indexed": true,
          "internalType": "address",
          "name": "newOwner",
          "type": "address"
        }
      ],
      "name": "OwnershipTransferred",
      "type": "event"
    },
    {
      "anonymous": false,
      "inputs": [
        {
          "indexed": true,
          "internalType": "address",
          "name": "user",
          "type": "address"
        },
        {
          "indexed": true,
          "internalType": "address",
          "name": "owner",
          "type": "address"
        },
        {
          "indexed": true,
          "internalType": "uint256",
          "name": "tokenId_",
          "type": "uint256"
        }
      ],
      "name": "SystemMintLog",
      "type": "event"
    },
    {
      "anonymous": false,
      "inputs": [
        {
          "indexed": true,
          "internalType": "address",
          "name": "from",
          "type": "address"
        },
        {
          "indexed": true,
          "internalType": "address",
          "name": "to",
          "type": "address"
        },
        {
          "indexed": true,
          "internalType": "uint256",
          "name": "tokenId",
          "type": "uint256"
        }
      ],
      "name": "Transfer",
      "type": "event"
    },
    {
      "anonymous": false,
      "inputs": [
        {
          "indexed": true,
          "internalType": "address",
          "name": "user",
          "type": "address"
        },
        {
          "indexed": true,
          "internalType": "address",
          "name": "owner",
          "type": "address"
        }
      ],
      "name": "UserMintLog",
      "type": "event"
    },
    {
      "inputs": [],
      "name": "_bridge",
      "outputs": [
        {
          "internalType": "address",
          "name": "",
          "type": "address"
        }
      ],
      "stateMutability": "view",
      "type": "function"
    },
    {
      "inputs": [],
      "name": "_nftPrice",
      "outputs": [
        {
          "internalType": "uint256",
          "name": "",
          "type": "uint256"
        }
      ],
      "stateMutability": "view",
      "type": "function"
    },
    {
      "inputs": [
        {
          "internalType": "address",
          "name": "to",
          "type": "address"
        },
        {
          "internalType": "uint256",
          "name": "tokenId",
          "type": "uint256"
        }
      ],
      "name": "approve",
      "outputs": [],
      "stateMutability": "nonpayable",
      "type": "function"
    },
    {
      "inputs": [
        {
          "internalType": "address",
          "name": "owner",
          "type": "address"
        }
      ],
      "name": "balanceOf",
      "outputs": [
        {
          "internalType": "uint256",
          "name": "",
          "type": "uint256"
        }
      ],
      "stateMutability": "view",
      "type": "function"
    },
    {
      "inputs": [
        {
          "internalType": "uint256",
          "name": "tokenId",
          "type": "uint256"
        }
      ],
      "name": "getApproved",
      "outputs": [
        {
          "internalType": "address",
          "name": "",
          "type": "address"
        }
      ],
      "stateMutability": "view",
      "type": "function"
    },
    {
      "inputs": [
        {
          "internalType": "address",
          "name": "owner",
          "type": "address"
        },
        {
          "internalType": "address",
          "name": "operator",
          "type": "address"
        }
      ],
      "name": "isApprovedForAll",
      "outputs": [
        {
          "internalType": "bool",
          "name": "",
          "type": "bool"
        }
      ],
      "stateMutability": "view",
      "type": "function"
    },
    {
      "inputs": [],
      "name": "name",
      "outputs": [
        {
          "internalType": "string",
          "name": "",
          "type": "string"
        }
      ],
      "stateMutability": "view",
      "type": "function"
    },
    {
      "inputs": [],
      "name": "owner",
      "outputs": [
        {
          "internalType": "address",
          "name": "",
          "type": "address"
        }
      ],
      "stateMutability": "view",
      "type": "function"
    },
    {
      "inputs": [
        {
          "internalType": "uint256",
          "name": "tokenId",
          "type": "uint256"
        }
      ],
      "name": "ownerOf",
      "outputs": [
        {
          "internalType": "address",
          "name": "",
          "type": "address"
        }
      ],
      "stateMutability": "view",
      "type": "function"
    },
    {
      "inputs": [],
      "name": "renounceOwnership",
      "outputs": [],
      "stateMutability": "nonpayable",
      "type": "function"
    },
    {
      "inputs": [
        {
          "internalType": "address",
          "name": "from",
          "type": "address"
        },
        {
          "internalType": "address",
          "name": "to",
          "type": "address"
        },
        {
          "internalType": "uint256",
          "name": "tokenId",
          "type": "uint256"
        }
      ],
      "name": "safeTransferFrom",
      "outputs": [],
      "stateMutability": "nonpayable",
      "type": "function"
    },
    {
      "inputs": [
        {
          "internalType": "address",
          "name": "from",
          "type": "address"
        },
        {
          "internalType": "address",
          "name": "to",
          "type": "address"
        },
        {
          "internalType": "uint256",
          "name": "tokenId",
          "type": "uint256"
        },
        {
          "internalType": "bytes",
          "name": "data",
          "type": "bytes"
        }
      ],
      "name": "safeTransferFrom",
      "outputs": [],
      "stateMutability": "nonpayable",
      "type": "function"
    },
    {
      "inputs": [
        {
          "internalType": "address",
          "name": "operator",
          "type": "address"
        },
        {
          "internalType": "bool",
          "name": "approved",
          "type": "bool"
        }
      ],
      "name": "setApprovalForAll",
      "outputs": [],
      "stateMutability": "nonpayable",
      "type": "function"
    },
    {
      "inputs": [
        {
          "internalType": "address",
          "name": "bridge_",
          "type": "address"
        }
      ],
      "name": "setBridgeAddr",
      "outputs": [],
      "stateMutability": "nonpayable",
      "type": "function"
    },
    {
      "inputs": [
        {
          "internalType": "bytes4",
          "name": "interfaceId",
          "type": "bytes4"
        }
      ],
      "name": "supportsInterface",
      "outputs": [
        {
          "internalType": "bool",
          "name": "",
          "type": "bool"
        }
      ],
      "stateMutability": "view",
      "type": "function"
    },
    {
      "inputs": [],
      "name": "symbol",
      "outputs": [
        {
          "internalType": "string",
          "name": "",
          "type": "string"
        }
      ],
      "stateMutability": "view",
      "type": "function"
    },
    {
      "inputs": [
        {
          "internalType": "address",
          "name": "to_",
          "type": "address"
        },
        {
          "internalType": "uint256",
          "name": "tokenId_",
          "type": "uint256"
        }
      ],
      "name": "systemMint",
      "outputs": [],
      "stateMutability": "nonpayable",
      "type": "function"
    },
    {
      "inputs": [
        {
          "internalType": "uint256",
          "name": "tokenId",
          "type": "uint256"
        }
      ],
      "name": "tokenURI",
      "outputs": [
        {
          "internalType": "string",
          "name": "",
          "type": "string"
        }
      ],
      "stateMutability": "view",
      "type": "function"
    },
    {
      "inputs": [
        {
          "internalType": "address",
          "name": "from",
          "type": "address"
        },
        {
          "internalType": "address",
          "name": "to",
          "type": "address"
        },
        {
          "internalType": "uint256",
          "name": "tokenId",
          "type": "uint256"
        }
      ],
      "name": "transferFrom",
      "outputs": [],
      "stateMutability": "nonpayable",
      "type": "function"
    },
    {
      "inputs": [
        {
          "internalType": "address",
          "name": "newOwner",
          "type": "address"
        }
      ],
      "name": "transferOwnership",
      "outputs": [],
      "stateMutability": "nonpayable",
      "type": "function"
    },
    {
      "inputs": [
        {
          "internalType": "address",
          "name": "to_",
          "type": "address"
        }
      ],
      "name": "userMint",
      "outputs": [],
      "stateMutability": "payable",
      "type": "function"
    }
  ],
  "bytecode": "0x60a06040523480156200001157600080fd5b506040516200343e3803806200343e833981810160405281019062000037919062000206565b6040518060400160405280601281526020017f5175616e74756d2d4272696467652d4e465400000000000000000000000000008152506040518060400160405280600581526020017f51424e46540000000000000000000000000000000000000000000000000000008152508160009081620000b49190620004a8565b508060019081620000c69190620004a8565b505050620000e9620000dd620000f860201b60201c565b6200010060201b60201c565b8060808181525050506200058f565b600033905090565b6000600660009054906101000a900473ffffffffffffffffffffffffffffffffffffffff16905081600660006101000a81548173ffffffffffffffffffffffffffffffffffffffff021916908373ffffffffffffffffffffffffffffffffffffffff1602179055508173ffffffffffffffffffffffffffffffffffffffff168173ffffffffffffffffffffffffffffffffffffffff167f8be0079c531659141344cd1fd0a4f28419497f9722a3daafe3b4186f6b6457e060405160405180910390a35050565b600080fd5b6000819050919050565b620001e081620001cb565b8114620001ec57600080fd5b50565b6000815190506200020081620001d5565b92915050565b6000602082840312156200021f576200021e620001c6565b5b60006200022f84828501620001ef565b91505092915050565b600081519050919050565b7f4e487b7100000000000000000000000000000000000000000000000000000000600052604160045260246000fd5b7f4e487b7100000000000000000000000000000000000000000000000000000000600052602260045260246000fd5b60006002820490506001821680620002ba57607f821691505b602082108103620002d057620002cf62000272565b5b50919050565b60008190508160005260206000209050919050565b60006020601f8301049050919050565b600082821b905092915050565b6000600883026200033a7fffffffffffffffffffffffffffffffffffffffffffffffffffffffffffffffff82620002fb565b620003468683620002fb565b95508019841693508086168417925050509392505050565b6000819050919050565b600062000389620003836200037d84620001cb565b6200035e565b620001cb565b9050919050565b6000819050919050565b620003a58362000368565b620003bd620003b48262000390565b84845462000308565b825550505050565b600090565b620003d4620003c5565b620003e18184846200039a565b505050565b5b818110156200040957620003fd600082620003ca565b600181019050620003e7565b5050565b601f82111562000458576200042281620002d6565b6200042d84620002eb565b810160208510156200043d578190505b620004556200044c85620002eb565b830182620003e6565b50505b505050565b600082821c905092915050565b60006200047d600019846008026200045d565b1980831691505092915050565b60006200049883836200046a565b9150826002028217905092915050565b620004b38262000238565b67ffffffffffffffff811115620004cf57620004ce62000243565b5b620004db8254620002a1565b620004e88282856200040d565b600060209050601f8311600181146200052057600084156200050b578287015190505b6200051785826200048a565b86555062000587565b601f1984166200053086620002d6565b60005b828110156200055a5784890151825560018201915060208501945060208101905062000533565b868310156200057a578489015162000576601f8916826200046a565b8355505b6001600288020188555050505b505050505050565b608051612e8c620005b2600039600081816107c201526108b20152612e8c6000f3fe60806040526004361061012a5760003560e01c806370a08231116100ab578063a22cb4651161006f578063a22cb465146103cf578063b88d4fde146103f8578063c43e5f7d14610421578063c87b56dd1461044c578063e985e9c514610489578063f2fde38b146104c65761012a565b806370a08231146102fc578063715018a6146103395780638da5cb5b1461035057806395d89b411461037b5780639943edd1146103a65761012a565b806323b872dd116100f257806323b872dd1461022857806342842e0e146102515780634dc076d61461027a5780635f102f9c146102a35780636352211e146102bf5761012a565b806301ffc9a71461012f57806306fdde031461016c578063081812fc14610197578063095ea7b3146101d45780631029e38b146101fd575b600080fd5b34801561013b57600080fd5b5061015660048036038101906101519190611f1b565b6104ef565b6040516101639190611f63565b60405180910390f35b34801561017857600080fd5b506101816105d1565b60405161018e919061200e565b60405180910390f35b3480156101a357600080fd5b506101be60048036038101906101b99190612066565b610663565b6040516101cb91906120d4565b60405180910390f35b3480156101e057600080fd5b506101fb60048036038101906101f6919061211b565b6106a9565b005b34801561020957600080fd5b506102126107c0565b60405161021f919061216a565b60405180910390f35b34801561023457600080fd5b5061024f600480360381019061024a9190612185565b6107e4565b005b34801561025d57600080fd5b5061027860048036038101906102739190612185565b610844565b005b34801561028657600080fd5b506102a1600480360381019061029c91906121d8565b610864565b005b6102bd60048036038101906102b891906121d8565b6108b0565b005b3480156102cb57600080fd5b506102e660048036038101906102e19190612066565b610970565b6040516102f391906120d4565b60405180910390f35b34801561030857600080fd5b50610323600480360381019061031e91906121d8565b6109f6565b604051610330919061216a565b60405180910390f35b34801561034557600080fd5b5061034e610aad565b005b34801561035c57600080fd5b50610365610ac1565b60405161037291906120d4565b60405180910390f35b34801561038757600080fd5b50610390610aeb565b60405161039d919061200e565b60405180910390f35b3480156103b257600080fd5b506103cd60048036038101906103c8919061211b565b610b7d565b005b3480156103db57600080fd5b506103f660048036038101906103f19190612231565b610cb3565b005b34801561040457600080fd5b5061041f600480360381019061041a91906123a6565b610cc9565b005b34801561042d57600080fd5b50610436610d2b565b60405161044391906120d4565b60405180910390f35b34801561045857600080fd5b50610473600480360381019061046e9190612066565b610d51565b604051610480919061200e565b60405180910390f35b34801561049557600080fd5b506104b060048036038101906104ab9190612429565b610db9565b6040516104bd9190611f63565b60405180910390f35b3480156104d257600080fd5b506104ed60048036038101906104e891906121d8565b610e4d565b005b60007f80ac58cd000000000000000000000000000000000000000000000000000000007bffffffffffffffffffffffffffffffffffffffffffffffffffffffff1916827bffffffffffffffffffffffffffffffffffffffffffffffffffffffff191614806105ba57507f5b5e139f000000000000000000000000000000000000000000000000000000007bffffffffffffffffffffffffffffffffffffffffffffffffffffffff1916827bffffffffffffffffffffffffffffffffffffffffffffffffffffffff1916145b806105ca57506105c982610ed0565b5b9050919050565b6060600080546105e090612498565b80601f016020809104026020016040519081016040528092919081815260200182805461060c90612498565b80156106595780601f1061062e57610100808354040283529160200191610659565b820191906000526020600020905b81548152906001019060200180831161063c57829003601f168201915b5050505050905090565b600061066e82610f3a565b6004600083815260200190815260200160002060009054906101000a900473ffffffffffffffffffffffffffffffffffffffff169050919050565b60006106b482610970565b90508073ffffffffffffffffffffffffffffffffffffffff168373ffffffffffffffffffffffffffffffffffffffff1603610724576040517f08c379a000000000000000000000000000000000000000000000000000000000815260040161071b9061253b565b60405180910390fd5b8073ffffffffffffffffffffffffffffffffffffffff16610743610f85565b73ffffffffffffffffffffffffffffffffffffffff16148061077257506107718161076c610f85565b610db9565b5b6107b1576040517f08c379a00000000000000000000000000000000000000000000000000000000081526004016107a8906125cd565b60405180910390fd5b6107bb8383610f8d565b505050565b7f000000000000000000000000000000000000000000000000000000000000000081565b6107f56107ef610f85565b82611046565b610834576040517f08c379a000000000000000000000000000000000000000000000000000000000815260040161082b9061265f565b60405180910390fd5b61083f8383836110db565b505050565b61085f83838360405180602001604052806000815250610cc9565b505050565b61086c6113d4565b80600760006101000a81548173ffffffffffffffffffffffffffffffffffffffff021916908373ffffffffffffffffffffffffffffffffffffffff16021790555050565b7f0000000000000000000000000000000000000000000000000000000000000000341015610913576040517f08c379a000000000000000000000000000000000000000000000000000000000815260040161090a906126cb565b60405180910390fd5b8073ffffffffffffffffffffffffffffffffffffffff163373ffffffffffffffffffffffffffffffffffffffff167f0ab84c198495c4fe152b2a83e9403c6332dd9b61aab9a16412edb0593c8167a860405160405180910390a350565b60008061097c83611452565b9050600073ffffffffffffffffffffffffffffffffffffffff168173ffffffffffffffffffffffffffffffffffffffff16036109ed576040517f08c379a00000000000000000000000000000000000000000000000000000000081526004016109e490612737565b60405180910390fd5b80915050919050565b60008073ffffffffffffffffffffffffffffffffffffffff168273ffffffffffffffffffffffffffffffffffffffff1603610a66576040517f08c379a0000000000000000000000000000000000000000000000000000000008152600401610a5d906127c9565b60405180910390fd5b600360008373ffffffffffffffffffffffffffffffffffffffff1673ffffffffffffffffffffffffffffffffffffffff168152602001908152602001600020549050919050565b610ab56113d4565b610abf600061148f565b565b6000600660009054906101000a900473ffffffffffffffffffffffffffffffffffffffff16905090565b606060018054610afa90612498565b80601f0160208091040260200160405190810160405280929190818152602001828054610b2690612498565b8015610b735780601f10610b4857610100808354040283529160200191610b73565b820191906000526020600020905b815481529060010190602001808311610b5657829003601f168201915b5050505050905090565b610b85610ac1565b73ffffffffffffffffffffffffffffffffffffffff163373ffffffffffffffffffffffffffffffffffffffff161480610c0b5750600760009054906101000a900473ffffffffffffffffffffffffffffffffffffffff1673ffffffffffffffffffffffffffffffffffffffff163373ffffffffffffffffffffffffffffffffffffffff16145b610c4a576040517f08c379a0000000000000000000000000000000000000000000000000000000008152600401610c4190612835565b60405180910390fd5b610c548282611555565b808273ffffffffffffffffffffffffffffffffffffffff163373ffffffffffffffffffffffffffffffffffffffff167f0c209c6a0d5f85533f09ca16e0fe11ff540f8d53478537ab737f87a54690abb660405160405180910390a45050565b610cc5610cbe610f85565b8383611772565b5050565b610cda610cd4610f85565b83611046565b610d19576040517f08c379a0000000000000000000000000000000000000000000000000000000008152600401610d109061265f565b60405180910390fd5b610d25848484846118de565b50505050565b600760009054906101000a900473ffffffffffffffffffffffffffffffffffffffff1681565b6060610d5c82610f3a565b6000610d6661193a565b90506000815111610d865760405180602001604052806000815250610db1565b80610d9084611977565b604051602001610da1929190612891565b6040516020818303038152906040525b915050919050565b6000600560008473ffffffffffffffffffffffffffffffffffffffff1673ffffffffffffffffffffffffffffffffffffffff16815260200190815260200160002060008373ffffffffffffffffffffffffffffffffffffffff1673ffffffffffffffffffffffffffffffffffffffff16815260200190815260200160002060009054906101000a900460ff16905092915050565b610e556113d4565b600073ffffffffffffffffffffffffffffffffffffffff168173ffffffffffffffffffffffffffffffffffffffff1603610ec4576040517f08c379a0000000000000000000000000000000000000000000000000000000008152600401610ebb90612927565b60405180910390fd5b610ecd8161148f565b50565b60007f01ffc9a7000000000000000000000000000000000000000000000000000000007bffffffffffffffffffffffffffffffffffffffffffffffffffffffff1916827bffffffffffffffffffffffffffffffffffffffffffffffffffffffff1916149050919050565b610f4381611a45565b610f82576040517f08c379a0000000000000000000000000000000000000000000000000000000008152600401610f7990612737565b60405180910390fd5b50565b600033905090565b816004600083815260200190815260200160002060006101000a81548173ffffffffffffffffffffffffffffffffffffffff021916908373ffffffffffffffffffffffffffffffffffffffff160217905550808273ffffffffffffffffffffffffffffffffffffffff1661100083610970565b73ffffffffffffffffffffffffffffffffffffffff167f8c5be1e5ebec7d5bd14f71427d1e84f3dd0314c0f7b2291e5b200ac8c7c3b92560405160405180910390a45050565b60008061105283610970565b90508073ffffffffffffffffffffffffffffffffffffffff168473ffffffffffffffffffffffffffffffffffffffff16148061109457506110938185610db9565b5b806110d257508373ffffffffffffffffffffffffffffffffffffffff166110ba84610663565b73ffffffffffffffffffffffffffffffffffffffff16145b91505092915050565b8273ffffffffffffffffffffffffffffffffffffffff166110fb82610970565b73ffffffffffffffffffffffffffffffffffffffff1614611151576040517f08c379a0000000000000000000000000000000000000000000000000000000008152600401611148906129b9565b60405180910390fd5b600073ffffffffffffffffffffffffffffffffffffffff168273ffffffffffffffffffffffffffffffffffffffff16036111c0576040517f08c379a00000000000000000000000000000000000000000000000000000000081526004016111b790612a4b565b60405180910390fd5b6111cd8383836001611a86565b8273ffffffffffffffffffffffffffffffffffffffff166111ed82610970565b73ffffffffffffffffffffffffffffffffffffffff1614611243576040517f08c379a000000000000000000000000000000000000000000000000000000000815260040161123a906129b9565b60405180910390fd5b6004600082815260200190815260200160002060006101000a81549073ffffffffffffffffffffffffffffffffffffffff02191690556001600360008573ffffffffffffffffffffffffffffffffffffffff1673ffffffffffffffffffffffffffffffffffffffff168152602001908152602001600020600082825403925050819055506001600360008473ffffffffffffffffffffffffffffffffffffffff1673ffffffffffffffffffffffffffffffffffffffff16815260200190815260200160002060008282540192505081905550816002600083815260200190815260200160002060006101000a81548173ffffffffffffffffffffffffffffffffffffffff021916908373ffffffffffffffffffffffffffffffffffffffff160217905550808273ffffffffffffffffffffffffffffffffffffffff168473ffffffffffffffffffffffffffffffffffffffff167fddf252ad1be2c89b69c2b068fc378daa952ba7f163c4a11628f55a4df523b3ef60405160405180910390a46113cf8383836001611bac565b505050565b6113dc610f85565b73ffffffffffffffffffffffffffffffffffffffff166113fa610ac1565b73ffffffffffffffffffffffffffffffffffffffff1614611450576040517f08c379a000000000000000000000000000000000000000000000000000000000815260040161144790612ab7565b60405180910390fd5b565b60006002600083815260200190815260200160002060009054906101000a900473ffffffffffffffffffffffffffffffffffffffff169050919050565b6000600660009054906101000a900473ffffffffffffffffffffffffffffffffffffffff16905081600660006101000a81548173ffffffffffffffffffffffffffffffffffffffff021916908373ffffffffffffffffffffffffffffffffffffffff1602179055508173ffffffffffffffffffffffffffffffffffffffff168173ffffffffffffffffffffffffffffffffffffffff167f8be0079c531659141344cd1fd0a4f28419497f9722a3daafe3b4186f6b6457e060405160405180910390a35050565b600073ffffffffffffffffffffffffffffffffffffffff168273ffffffffffffffffffffffffffffffffffffffff16036115c4576040517f08c379a00000000000000000000000000000000000000000000000000000000081526004016115bb90612b23565b60405180910390fd5b6115cd81611a45565b1561160d576040517f08c379a000000000000000000000000000000000000000000000000000000000815260040161160490612b8f565b60405180910390fd5b61161b600083836001611a86565b61162481611a45565b15611664576040517f08c379a000000000000000000000000000000000000000000000000000000000815260040161165b90612b8f565b60405180910390fd5b6001600360008473ffffffffffffffffffffffffffffffffffffffff1673ffffffffffffffffffffffffffffffffffffffff16815260200190815260200160002060008282540192505081905550816002600083815260200190815260200160002060006101000a81548173ffffffffffffffffffffffffffffffffffffffff021916908373ffffffffffffffffffffffffffffffffffffffff160217905550808273ffffffffffffffffffffffffffffffffffffffff16600073ffffffffffffffffffffffffffffffffffffffff167fddf252ad1be2c89b69c2b068fc378daa952ba7f163c4a11628f55a4df523b3ef60405160405180910390a461176e600083836001611bac565b5050565b8173ffffffffffffffffffffffffffffffffffffffff168373ffffffffffffffffffffffffffffffffffffffff16036117e0576040517f08c379a00000000000000000000000000000000000000000000000000000000081526004016117d790612bfb565b60405180910390fd5b80600560008573ffffffffffffffffffffffffffffffffffffffff1673ffffffffffffffffffffffffffffffffffffffff16815260200190815260200160002060008473ffffffffffffffffffffffffffffffffffffffff1673ffffffffffffffffffffffffffffffffffffffff16815260200190815260200160002060006101000a81548160ff0219169083151502179055508173ffffffffffffffffffffffffffffffffffffffff168373ffffffffffffffffffffffffffffffffffffffff167f17307eab39ab6107e8899845ad3d59bd9653f200f220920489ca2b5937696c31836040516118d19190611f63565b60405180910390a3505050565b6118e98484846110db565b6118f584848484611bb2565b611934576040517f08c379a000000000000000000000000000000000000000000000000000000000815260040161192b90612c8d565b60405180910390fd5b50505050565b60606040518060400160405280600a81526020017f5175616e74756d55524900000000000000000000000000000000000000000000815250905090565b60606000600161198684611d39565b01905060008167ffffffffffffffff8111156119a5576119a461227b565b5b6040519080825280601f01601f1916602001820160405280156119d75781602001600182028036833780820191505090505b509050600082602001820190505b600115611a3a578080600190039150507f3031323334353637383961626364656600000000000000000000000000000000600a86061a8153600a8581611a2e57611a2d612cad565b5b049450600085036119e5575b819350505050919050565b60008073ffffffffffffffffffffffffffffffffffffffff16611a6783611452565b73ffffffffffffffffffffffffffffffffffffffff1614159050919050565b6001811115611ba657600073ffffffffffffffffffffffffffffffffffffffff168473ffffffffffffffffffffffffffffffffffffffff1614611b1a5780600360008673ffffffffffffffffffffffffffffffffffffffff1673ffffffffffffffffffffffffffffffffffffffff1681526020019081526020016000206000828254611b129190612d0b565b925050819055505b600073ffffffffffffffffffffffffffffffffffffffff168373ffffffffffffffffffffffffffffffffffffffff1614611ba55780600360008573ffffffffffffffffffffffffffffffffffffffff1673ffffffffffffffffffffffffffffffffffffffff1681526020019081526020016000206000828254611b9d9190612d3f565b925050819055505b5b50505050565b50505050565b6000611bd38473ffffffffffffffffffffffffffffffffffffffff16611e8c565b15611d2c578373ffffffffffffffffffffffffffffffffffffffff1663150b7a02611bfc610f85565b8786866040518563ffffffff1660e01b8152600401611c1e9493929190612dc8565b6020604051808303816000875af1925050508015611c5a57506040513d601f19601f82011682018060405250810190611c579190612e29565b60015b611cdc573d8060008114611c8a576040519150601f19603f3d011682016040523d82523d6000602084013e611c8f565b606091505b506000815103611cd4576040517f08c379a0000000000000000000000000000000000000000000000000000000008152600401611ccb90612c8d565b60405180910390fd5b805181602001fd5b63150b7a0260e01b7bffffffffffffffffffffffffffffffffffffffffffffffffffffffff1916817bffffffffffffffffffffffffffffffffffffffffffffffffffffffff191614915050611d31565b600190505b949350505050565b600080600090507a184f03e93ff9f4daa797ed6e38ed64bf6a1f0100000000000000008310611d97577a184f03e93ff9f4daa797ed6e38ed64bf6a1f0100000000000000008381611d8d57611d8c612cad565b5b0492506040810190505b6d04ee2d6d415b85acef81000000008310611dd4576d04ee2d6d415b85acef81000000008381611dca57611dc9612cad565b5b0492506020810190505b662386f26fc100008310611e0357662386f26fc100008381611df957611df8612cad565b5b0492506010810190505b6305f5e1008310611e2c576305f5e1008381611e2257611e21612cad565b5b0492506008810190505b6127108310611e51576127108381611e4757611e46612cad565b5b0492506004810190505b60648310611e745760648381611e6a57611e69612cad565b5b0492506002810190505b600a8310611e83576001810190505b80915050919050565b6000808273ffffffffffffffffffffffffffffffffffffffff163b119050919050565b6000604051905090565b600080fd5b600080fd5b60007fffffffff0000000000000000000000000000000000000000000000000000000082169050919050565b611ef881611ec3565b8114611f0357600080fd5b50565b600081359050611f1581611eef565b92915050565b600060208284031215611f3157611f30611eb9565b5b6000611f3f84828501611f06565b91505092915050565b60008115159050919050565b611f5d81611f48565b82525050565b6000602082019050611f786000830184611f54565b92915050565b600081519050919050565b600082825260208201905092915050565b60005b83811015611fb8578082015181840152602081019050611f9d565b60008484015250505050565b6000601f19601f8301169050919050565b6000611fe082611f7e565b611fea8185611f89565b9350611ffa818560208601611f9a565b61200381611fc4565b840191505092915050565b600060208201905081810360008301526120288184611fd5565b905092915050565b6000819050919050565b61204381612030565b811461204e57600080fd5b50565b6000813590506120608161203a565b92915050565b60006020828403121561207c5761207b611eb9565b5b600061208a84828501612051565b91505092915050565b600073ffffffffffffffffffffffffffffffffffffffff82169050919050565b60006120be82612093565b9050919050565b6120ce816120b3565b82525050565b60006020820190506120e960008301846120c5565b92915050565b6120f8816120b3565b811461210357600080fd5b50565b600081359050612115816120ef565b92915050565b6000806040838503121561213257612131611eb9565b5b600061214085828601612106565b925050602061215185828601612051565b9150509250929050565b61216481612030565b82525050565b600060208201905061217f600083018461215b565b92915050565b60008060006060848603121561219e5761219d611eb9565b5b60006121ac86828701612106565b93505060206121bd86828701612106565b92505060406121ce86828701612051565b9150509250925092565b6000602082840312156121ee576121ed611eb9565b5b60006121fc84828501612106565b91505092915050565b61220e81611f48565b811461221957600080fd5b50565b60008135905061222b81612205565b92915050565b6000806040838503121561224857612247611eb9565b5b600061225685828601612106565b92505060206122678582860161221c565b9150509250929050565b600080fd5b600080fd5b7f4e487b7100000000000000000000000000000000000000000000000000000000600052604160045260246000fd5b6122b382611fc4565b810181811067ffffffffffffffff821117156122d2576122d161227b565b5b80604052505050565b60006122e5611eaf565b90506122f182826122aa565b919050565b600067ffffffffffffffff8211156123115761231061227b565b5b61231a82611fc4565b9050602081019050919050565b82818337600083830152505050565b6000612349612344846122f6565b6122db565b90508281526020810184848401111561236557612364612276565b5b612370848285612327565b509392505050565b600082601f83011261238d5761238c612271565b5b813561239d848260208601612336565b91505092915050565b600080600080608085870312156123c0576123bf611eb9565b5b60006123ce87828801612106565b94505060206123df87828801612106565b93505060406123f087828801612051565b925050606085013567ffffffffffffffff81111561241157612410611ebe565b5b61241d87828801612378565b91505092959194509250565b600080604083850312156124405761243f611eb9565b5b600061244e85828601612106565b925050602061245f85828601612106565b9150509250929050565b7f4e487b7100000000000000000000000000000000000000000000000000000000600052602260045260246000fd5b600060028204905060018216806124b057607f821691505b6020821081036124c3576124c2612469565b5b50919050565b7f4552433732313a20617070726f76616c20746f2063757272656e74206f776e6560008201527f7200000000000000000000000000000000000000000000000000000000000000602082015250565b6000612525602183611f89565b9150612530826124c9565b604082019050919050565b6000602082019050818103600083015261255481612518565b9050919050565b7f4552433732313a20617070726f76652063616c6c6572206973206e6f7420746f60008201527f6b656e206f776e6572206f7220617070726f76656420666f7220616c6c000000602082015250565b60006125b7603d83611f89565b91506125c28261255b565b604082019050919050565b600060208201905081810360008301526125e6816125aa565b9050919050565b7f4552433732313a2063616c6c6572206973206e6f7420746f6b656e206f776e6560008201527f72206f7220617070726f76656400000000000000000000000000000000000000602082015250565b6000612649602d83611f89565b9150612654826125ed565b604082019050919050565b600060208201905081810360008301526126788161263c565b9050919050565b7f6c6573732d616d6f756e742d7061696400000000000000000000000000000000600082015250565b60006126b5601083611f89565b91506126c08261267f565b602082019050919050565b600060208201905081810360008301526126e4816126a8565b9050919050565b7f4552433732313a20696e76616c696420746f6b656e2049440000000000000000600082015250565b6000612721601883611f89565b915061272c826126eb565b602082019050919050565b6000602082019050818103600083015261275081612714565b9050919050565b7f4552433732313a2061646472657373207a65726f206973206e6f74206120766160008201527f6c6964206f776e65720000000000000000000000000000000000000000000000602082015250565b60006127b3602983611f89565b91506127be82612757565b604082019050919050565b600060208201905081810360008301526127e2816127a6565b9050919050565b7f696c6c6567616c2d63616c6c6572000000000000000000000000000000000000600082015250565b600061281f600e83611f89565b915061282a826127e9565b602082019050919050565b6000602082019050818103600083015261284e81612812565b9050919050565b600081905092915050565b600061286b82611f7e565b6128758185612855565b9350612885818560208601611f9a565b80840191505092915050565b600061289d8285612860565b91506128a98284612860565b91508190509392505050565b7f4f776e61626c653a206e6577206f776e657220697320746865207a65726f206160008201527f6464726573730000000000000000000000000000000000000000000000000000602082015250565b6000612911602683611f89565b915061291c826128b5565b604082019050919050565b6000602082019050818103600083015261294081612904565b9050919050565b7f4552433732313a207472616e736665722066726f6d20696e636f72726563742060008201527f6f776e6572000000000000000000000000000000000000000000000000000000602082015250565b60006129a3602583611f89565b91506129ae82612947565b604082019050919050565b600060208201905081810360008301526129d281612996565b9050919050565b7f4552433732313a207472616e7366657220746f20746865207a65726f2061646460008201527f7265737300000000000000000000000000000000000000000000000000000000602082015250565b6000612a35602483611f89565b9150612a40826129d9565b604082019050919050565b60006020820190508181036000830152612a6481612a28565b9050919050565b7f4f776e61626c653a2063616c6c6572206973206e6f7420746865206f776e6572600082015250565b6000612aa1602083611f89565b9150612aac82612a6b565b602082019050919050565b60006020820190508181036000830152612ad081612a94565b9050919050565b7f4552433732313a206d696e7420746f20746865207a65726f2061646472657373600082015250565b6000612b0d602083611f89565b9150612b1882612ad7565b602082019050919050565b60006020820190508181036000830152612b3c81612b00565b9050919050565b7f4552433732313a20746f6b656e20616c7265616479206d696e74656400000000600082015250565b6000612b79601c83611f89565b9150612b8482612b43565b602082019050919050565b60006020820190508181036000830152612ba881612b6c565b9050919050565b7f4552433732313a20617070726f766520746f2063616c6c657200000000000000600082015250565b6000612be5601983611f89565b9150612bf082612baf565b602082019050919050565b60006020820190508181036000830152612c1481612bd8565b9050919050565b7f4552433732313a207472616e7366657220746f206e6f6e20455243373231526560008201527f63656976657220696d706c656d656e7465720000000000000000000000000000602082015250565b6000612c77603283611f89565b9150612c8282612c1b565b604082019050919050565b60006020820190508181036000830152612ca681612c6a565b9050919050565b7f4e487b7100000000000000000000000000000000000000000000000000000000600052601260045260246000fd5b7f4e487b7100000000000000000000000000000000000000000000000000000000600052601160045260246000fd5b6000612d1682612030565b9150612d2183612030565b9250828203905081811115612d3957612d38612cdc565b5b92915050565b6000612d4a82612030565b9150612d5583612030565b9250828201905080821115612d6d57612d6c612cdc565b5b92915050565b600081519050919050565b600082825260208201905092915050565b6000612d9a82612d73565b612da48185612d7e565b9350612db4818560208601611f9a565b612dbd81611fc4565b840191505092915050565b6000608082019050612ddd60008301876120c5565b612dea60208301866120c5565b612df7604083018561215b565b8181036060830152612e098184612d8f565b905095945050505050565b600081519050612e2381611eef565b92915050565b600060208284031215612e3f57612e3e611eb9565b5b6000612e4d84828501612e14565b9150509291505056fea2646970667358221220be57a27172c922c7c31f33f88658cdd5762ad5f4bf4a500417ec41d1bc74f61164736f6c63430008110033",
  "linkReferences": {},
  "deployedLinkReferences": {}
}