{
  "_format": "hh-sol-artifact-1",
  "contractName": "ERC20Modified",
  "sourceName": "contracts/FractionX/ERC20Modified.sol",
  "abi": [
    {
      "inputs": [
        {
          "internalType": "string",
          "name": "name_",
          "type": "string"
        },
        {
          "internalType": "string",
          "name": "symbol_",
          "type": "string"
        },
        {
          "internalType": "address",
          "name": "owner_",
          "type": "address"
        }
      ],
      "stateMutability": "nonpayable",
      "type": "constructor"
    },
    {
      "anonymous": false,
      "inputs": [
        {
          "indexed": true,
          "internalType": "address",
          "name": "owner",
          "type": "address"
        },
        {
          "indexed": true,
          "internalType": "address",
          "name": "spender",
          "type": "address"
        },
        {
          "indexed": false,
          "internalType": "uint256",
          "name": "value",
          "type": "uint256"
        }
      ],
      "name": "Approval",
      "type": "event"
    },
    {
      "anonymous": false,
      "inputs": [
        {
          "indexed": true,
          "internalType": "address",
          "name": "from",
          "type": "address"
        },
        {
          "indexed": true,
          "internalType": "address",
          "name": "to",
          "type": "address"
        },
        {
          "indexed": false,
          "internalType": "uint256",
          "name": "value",
          "type": "uint256"
        }
      ],
      "name": "Transfer",
      "type": "event"
    },
    {
      "inputs": [
        {
          "internalType": "address",
          "name": "owner",
          "type": "address"
        },
        {
          "internalType": "address",
          "name": "spender",
          "type": "address"
        }
      ],
      "name": "allowance",
      "outputs": [
        {
          "internalType": "uint256",
          "name": "",
          "type": "uint256"
        }
      ],
      "stateMutability": "view",
      "type": "function"
    },
    {
      "inputs": [
        {
          "internalType": "address",
          "name": "spender",
          "type": "address"
        },
        {
          "internalType": "uint256",
          "name": "amount",
          "type": "uint256"
        }
      ],
      "name": "approve",
      "outputs": [
        {
          "internalType": "bool",
          "name": "",
          "type": "bool"
        }
      ],
      "stateMutability": "nonpayable",
      "type": "function"
    },
    {
      "inputs": [
        {
          "internalType": "address",
          "name": "account",
          "type": "address"
        }
      ],
      "name": "balanceOf",
      "outputs": [
        {
          "internalType": "uint256",
          "name": "",
          "type": "uint256"
        }
      ],
      "stateMutability": "view",
      "type": "function"
    },
    {
      "inputs": [
        {
          "internalType": "address",
          "name": "to_",
          "type": "address"
        },
        {
          "internalType": "uint256",
          "name": "amount_",
          "type": "uint256"
        }
      ],
      "name": "burn",
      "outputs": [],
      "stateMutability": "nonpayable",
      "type": "function"
    },
    {
      "inputs": [],
      "name": "canRedeem",
      "outputs": [
        {
          "internalType": "bool",
          "name": "",
          "type": "bool"
        }
      ],
      "stateMutability": "view",
      "type": "function"
    },
    {
      "inputs": [],
      "name": "decimals",
      "outputs": [
        {
          "internalType": "uint8",
          "name": "",
          "type": "uint8"
        }
      ],
      "stateMutability": "view",
      "type": "function"
    },
    {
      "inputs": [
        {
          "internalType": "address",
          "name": "spender",
          "type": "address"
        },
        {
          "internalType": "uint256",
          "name": "subtractedValue",
          "type": "uint256"
        }
      ],
      "name": "decreaseAllowance",
      "outputs": [
        {
          "internalType": "bool",
          "name": "",
          "type": "bool"
        }
      ],
      "stateMutability": "nonpayable",
      "type": "function"
    },
    {
      "inputs": [],
      "name": "forSale",
      "outputs": [
        {
          "internalType": "bool",
          "name": "",
          "type": "bool"
        }
      ],
      "stateMutability": "view",
      "type": "function"
    },
    {
      "inputs": [
        {
          "internalType": "address",
          "name": "spender",
          "type": "address"
        },
        {
          "internalType": "uint256",
          "name": "addedValue",
          "type": "uint256"
        }
      ],
      "name": "increaseAllowance",
      "outputs": [
        {
          "internalType": "bool",
          "name": "",
          "type": "bool"
        }
      ],
      "stateMutability": "nonpayable",
      "type": "function"
    },
    {
      "inputs": [
        {
          "internalType": "address",
          "name": "to_",
          "type": "address"
        },
        {
          "internalType": "uint256",
          "name": "amount_",
          "type": "uint256"
        }
      ],
      "name": "mint",
      "outputs": [],
      "stateMutability": "nonpayable",
      "type": "function"
    },
    {
      "inputs": [],
      "name": "name",
      "outputs": [
        {
          "internalType": "string",
          "name": "",
          "type": "string"
        }
      ],
      "stateMutability": "view",
      "type": "function"
    },
    {
      "inputs": [],
      "name": "purchase",
      "outputs": [],
      "stateMutability": "payable",
      "type": "function"
    },
    {
      "inputs": [
        {
          "internalType": "uint256",
          "name": "amount_",
          "type": "uint256"
        }
      ],
      "name": "putForSale",
      "outputs": [],
      "stateMutability": "nonpayable",
      "type": "function"
    },
    {
      "inputs": [],
      "name": "salePrice",
      "outputs": [
        {
          "internalType": "uint256",
          "name": "",
          "type": "uint256"
        }
      ],
      "stateMutability": "view",
      "type": "function"
    },
    {
      "inputs": [],
      "name": "symbol",
      "outputs": [
        {
          "internalType": "string",
          "name": "",
          "type": "string"
        }
      ],
      "stateMutability": "view",
      "type": "function"
    },
    {
      "inputs": [],
      "name": "totalSupply",
      "outputs": [
        {
          "internalType": "uint256",
          "name": "",
          "type": "uint256"
        }
      ],
      "stateMutability": "view",
      "type": "function"
    },
    {
      "inputs": [
        {
          "internalType": "address",
          "name": "to",
          "type": "address"
        },
        {
          "internalType": "uint256",
          "name": "amount",
          "type": "uint256"
        }
      ],
      "name": "transfer",
      "outputs": [
        {
          "internalType": "bool",
          "name": "",
          "type": "bool"
        }
      ],
      "stateMutability": "nonpayable",
      "type": "function"
    },
    {
      "inputs": [
        {
          "internalType": "address",
          "name": "from",
          "type": "address"
        },
        {
          "internalType": "address",
          "name": "to",
          "type": "address"
        },
        {
          "internalType": "uint256",
          "name": "amount",
          "type": "uint256"
        }
      ],
      "name": "transferFrom",
      "outputs": [
        {
          "internalType": "bool",
          "name": "",
          "type": "bool"
        }
      ],
      "stateMutability": "nonpayable",
      "type": "function"
    }
  ],
  "bytecode": "0x60a06040523480156200001157600080fd5b50604051620023b4380380620023b4833981810160405281019062000037919062000294565b828281600390816200004a919062000579565b5080600490816200005c919062000579565b5050508073ffffffffffffffffffffffffffffffffffffffff1660808173ffffffffffffffffffffffffffffffffffffffff168152505050505062000660565b6000604051905090565b600080fd5b600080fd5b600080fd5b600080fd5b6000601f19601f8301169050919050565b7f4e487b7100000000000000000000000000000000000000000000000000000000600052604160045260246000fd5b6200010582620000ba565b810181811067ffffffffffffffff82111715620001275762000126620000cb565b5b80604052505050565b60006200013c6200009c565b90506200014a8282620000fa565b919050565b600067ffffffffffffffff8211156200016d576200016c620000cb565b5b6200017882620000ba565b9050602081019050919050565b60005b83811015620001a557808201518184015260208101905062000188565b60008484015250505050565b6000620001c8620001c2846200014f565b62000130565b905082815260208101848484011115620001e757620001e6620000b5565b5b620001f484828562000185565b509392505050565b600082601f830112620002145762000213620000b0565b5b815162000226848260208601620001b1565b91505092915050565b600073ffffffffffffffffffffffffffffffffffffffff82169050919050565b60006200025c826200022f565b9050919050565b6200026e816200024f565b81146200027a57600080fd5b50565b6000815190506200028e8162000263565b92915050565b600080600060608486031215620002b057620002af620000a6565b5b600084015167ffffffffffffffff811115620002d157620002d0620000ab565b5b620002df86828701620001fc565b935050602084015167ffffffffffffffff811115620003035762000302620000ab565b5b6200031186828701620001fc565b925050604062000324868287016200027d565b9150509250925092565b600081519050919050565b7f4e487b7100000000000000000000000000000000000000000000000000000000600052602260045260246000fd5b600060028204905060018216806200038157607f821691505b60208210810362000397576200039662000339565b5b50919050565b60008190508160005260206000209050919050565b60006020601f8301049050919050565b600082821b905092915050565b600060088302620004017fffffffffffffffffffffffffffffffffffffffffffffffffffffffffffffffff82620003c2565b6200040d8683620003c2565b95508019841693508086168417925050509392505050565b6000819050919050565b6000819050919050565b60006200045a620004546200044e8462000425565b6200042f565b62000425565b9050919050565b6000819050919050565b620004768362000439565b6200048e620004858262000461565b848454620003cf565b825550505050565b600090565b620004a562000496565b620004b28184846200046b565b505050565b5b81811015620004da57620004ce6000826200049b565b600181019050620004b8565b5050565b601f8211156200052957620004f3816200039d565b620004fe84620003b2565b810160208510156200050e578190505b620005266200051d85620003b2565b830182620004b7565b50505b505050565b600082821c905092915050565b60006200054e600019846008026200052e565b1980831691505092915050565b60006200056983836200053b565b9150826002028217905092915050565b62000584826200032e565b67ffffffffffffffff811115620005a0576200059f620000cb565b5b620005ac825462000368565b620005b9828285620004de565b600060209050601f831160018114620005f15760008415620005dc578287015190505b620005e885826200055b565b86555062000658565b601f19841662000601866200039d565b60005b828110156200062b5784890151825560018201915060208501945060208101905062000604565b868310156200064b578489015162000647601f8916826200053b565b8355505b6001600288020188555050505b505050505050565b608051611d2a6200068a6000396000818161052c0152818161064e01526108a20152611d2a6000f3fe6080604052600436106101095760003560e01c806364edfbf011610095578063a457c2d711610064578063a457c2d71461035e578063a9059cbb1461039b578063dd62ed3e146103d8578063f51f96dd14610415578063f97ed5091461044057610109565b806364edfbf0146102c357806370a08231146102cd57806395d89b411461030a5780639dc29fac1461033557610109565b806323b872dd116100dc57806323b872dd146101ca578063313ce56714610207578063395093511461023257806340c10f191461026f578063466ccac01461029857610109565b806306fdde031461010e578063095ea7b31461013957806318160ddd146101765780631f078ced146101a1575b600080fd5b34801561011a57600080fd5b5061012361046b565b6040516101309190611306565b60405180910390f35b34801561014557600080fd5b50610160600480360381019061015b91906113c1565b6104fd565b60405161016d919061141c565b60405180910390f35b34801561018257600080fd5b5061018b610520565b6040516101989190611446565b60405180910390f35b3480156101ad57600080fd5b506101c860048036038101906101c39190611461565b61052a565b005b3480156101d657600080fd5b506101f160048036038101906101ec919061148e565b6105dd565b6040516101fe919061141c565b60405180910390f35b34801561021357600080fd5b5061021c61060c565b60405161022991906114fd565b60405180910390f35b34801561023e57600080fd5b50610259600480360381019061025491906113c1565b610615565b604051610266919061141c565b60405180910390f35b34801561027b57600080fd5b50610296600480360381019061029191906113c1565b61064c565b005b3480156102a457600080fd5b506102ad6106e8565b6040516102ba919061141c565b60405180910390f35b6102cb6106fb565b005b3480156102d957600080fd5b506102f460048036038101906102ef9190611518565b6107c6565b6040516103019190611446565b60405180910390f35b34801561031657600080fd5b5061031f61080e565b60405161032c9190611306565b60405180910390f35b34801561034157600080fd5b5061035c600480360381019061035791906113c1565b6108a0565b005b34801561036a57600080fd5b50610385600480360381019061038091906113c1565b61093c565b604051610392919061141c565b60405180910390f35b3480156103a757600080fd5b506103c260048036038101906103bd91906113c1565b6109b3565b6040516103cf919061141c565b60405180910390f35b3480156103e457600080fd5b506103ff60048036038101906103fa9190611545565b6109d6565b60405161040c9190611446565b60405180910390f35b34801561042157600080fd5b5061042a610a5d565b6040516104379190611446565b60405180910390f35b34801561044c57600080fd5b50610455610a63565b604051610462919061141c565b60405180910390f35b60606003805461047a906115b4565b80601f01602080910402602001604051908101604052809291908181526020018280546104a6906115b4565b80156104f35780601f106104c8576101008083540402835291602001916104f3565b820191906000526020600020905b8154815290600101906020018083116104d657829003601f168201915b5050505050905090565b600080610508610a76565b9050610515818585610a7e565b600191505092915050565b6000600254905090565b7f000000000000000000000000000000000000000000000000000000000000000073ffffffffffffffffffffffffffffffffffffffff163373ffffffffffffffffffffffffffffffffffffffff16146105b8576040517f08c379a00000000000000000000000000000000000000000000000000000000081526004016105af90611631565b60405180910390fd5b6001600560006101000a81548160ff0219169083151502179055508060068190555050565b6000806105e8610a76565b90506105f5858285610c47565b610600858585610cd3565b60019150509392505050565b60006012905090565b600080610620610a76565b905061064181858561063285896109d6565b61063c9190611680565b610a7e565b600191505092915050565b7f000000000000000000000000000000000000000000000000000000000000000073ffffffffffffffffffffffffffffffffffffffff163373ffffffffffffffffffffffffffffffffffffffff16146106da576040517f08c379a00000000000000000000000000000000000000000000000000000000081526004016106d190611631565b60405180910390fd5b6106e48282610f49565b5050565b600560009054906101000a900460ff1681565b600560009054906101000a900460ff1661074a576040517f08c379a000000000000000000000000000000000000000000000000000000000815260040161074190611700565b60405180910390fd5b600654341461078e576040517f08c379a00000000000000000000000000000000000000000000000000000000081526004016107859061176c565b60405180910390fd5b6000600560006101000a81548160ff0219169083151502179055506001600760006101000a81548160ff021916908315150217905550565b60008060008373ffffffffffffffffffffffffffffffffffffffff1673ffffffffffffffffffffffffffffffffffffffff168152602001908152602001600020549050919050565b60606004805461081d906115b4565b80601f0160208091040260200160405190810160405280929190818152602001828054610849906115b4565b80156108965780601f1061086b57610100808354040283529160200191610896565b820191906000526020600020905b81548152906001019060200180831161087957829003601f168201915b5050505050905090565b7f000000000000000000000000000000000000000000000000000000000000000073ffffffffffffffffffffffffffffffffffffffff163373ffffffffffffffffffffffffffffffffffffffff161461092e576040517f08c379a000000000000000000000000000000000000000000000000000000000815260040161092590611631565b60405180910390fd5b610938828261109f565b5050565b600080610947610a76565b9050600061095582866109d6565b90508381101561099a576040517f08c379a0000000000000000000000000000000000000000000000000000000008152600401610991906117fe565b60405180910390fd5b6109a78286868403610a7e565b60019250505092915050565b6000806109be610a76565b90506109cb818585610cd3565b600191505092915050565b6000600160008473ffffffffffffffffffffffffffffffffffffffff1673ffffffffffffffffffffffffffffffffffffffff16815260200190815260200160002060008373ffffffffffffffffffffffffffffffffffffffff1673ffffffffffffffffffffffffffffffffffffffff16815260200190815260200160002054905092915050565b60065481565b600760009054906101000a900460ff1681565b600033905090565b600073ffffffffffffffffffffffffffffffffffffffff168373ffffffffffffffffffffffffffffffffffffffff1603610aed576040517f08c379a0000000000000000000000000000000000000000000000000000000008152600401610ae490611890565b60405180910390fd5b600073ffffffffffffffffffffffffffffffffffffffff168273ffffffffffffffffffffffffffffffffffffffff1603610b5c576040517f08c379a0000000000000000000000000000000000000000000000000000000008152600401610b5390611922565b60405180910390fd5b80600160008573ffffffffffffffffffffffffffffffffffffffff1673ffffffffffffffffffffffffffffffffffffffff16815260200190815260200160002060008473ffffffffffffffffffffffffffffffffffffffff1673ffffffffffffffffffffffffffffffffffffffff168152602001908152602001600020819055508173ffffffffffffffffffffffffffffffffffffffff168373ffffffffffffffffffffffffffffffffffffffff167f8c5be1e5ebec7d5bd14f71427d1e84f3dd0314c0f7b2291e5b200ac8c7c3b92583604051610c3a9190611446565b60405180910390a3505050565b6000610c5384846109d6565b90507fffffffffffffffffffffffffffffffffffffffffffffffffffffffffffffffff8114610ccd5781811015610cbf576040517f08c379a0000000000000000000000000000000000000000000000000000000008152600401610cb69061198e565b60405180910390fd5b610ccc8484848403610a7e565b5b50505050565b600073ffffffffffffffffffffffffffffffffffffffff168373ffffffffffffffffffffffffffffffffffffffff1603610d42576040517f08c379a0000000000000000000000000000000000000000000000000000000008152600401610d3990611a20565b60405180910390fd5b600073ffffffffffffffffffffffffffffffffffffffff168273ffffffffffffffffffffffffffffffffffffffff1603610db1576040517f08c379a0000000000000000000000000000000000000000000000000000000008152600401610da890611ab2565b60405180910390fd5b610dbc83838361126c565b60008060008573ffffffffffffffffffffffffffffffffffffffff1673ffffffffffffffffffffffffffffffffffffffff16815260200190815260200160002054905081811015610e42576040517f08c379a0000000000000000000000000000000000000000000000000000000008152600401610e3990611b44565b60405180910390fd5b8181036000808673ffffffffffffffffffffffffffffffffffffffff1673ffffffffffffffffffffffffffffffffffffffff16815260200190815260200160002081905550816000808573ffffffffffffffffffffffffffffffffffffffff1673ffffffffffffffffffffffffffffffffffffffff168152602001908152602001600020600082825401925050819055508273ffffffffffffffffffffffffffffffffffffffff168473ffffffffffffffffffffffffffffffffffffffff167fddf252ad1be2c89b69c2b068fc378daa952ba7f163c4a11628f55a4df523b3ef84604051610f309190611446565b60405180910390a3610f43848484611271565b50505050565b600073ffffffffffffffffffffffffffffffffffffffff168273ffffffffffffffffffffffffffffffffffffffff1603610fb8576040517f08c379a0000000000000000000000000000000000000000000000000000000008152600401610faf90611bb0565b60405180910390fd5b610fc46000838361126c565b8060026000828254610fd69190611680565b92505081905550806000808473ffffffffffffffffffffffffffffffffffffffff1673ffffffffffffffffffffffffffffffffffffffff168152602001908152602001600020600082825401925050819055508173ffffffffffffffffffffffffffffffffffffffff16600073ffffffffffffffffffffffffffffffffffffffff167fddf252ad1be2c89b69c2b068fc378daa952ba7f163c4a11628f55a4df523b3ef836040516110879190611446565b60405180910390a361109b60008383611271565b5050565b600073ffffffffffffffffffffffffffffffffffffffff168273ffffffffffffffffffffffffffffffffffffffff160361110e576040517f08c379a000000000000000000000000000000000000000000000000000000000815260040161110590611c42565b60405180910390fd5b61111a8260008361126c565b60008060008473ffffffffffffffffffffffffffffffffffffffff1673ffffffffffffffffffffffffffffffffffffffff168152602001908152602001600020549050818110156111a0576040517f08c379a000000000000000000000000000000000000000000000000000000000815260040161119790611cd4565b60405180910390fd5b8181036000808573ffffffffffffffffffffffffffffffffffffffff1673ffffffffffffffffffffffffffffffffffffffff1681526020019081526020016000208190555081600260008282540392505081905550600073ffffffffffffffffffffffffffffffffffffffff168373ffffffffffffffffffffffffffffffffffffffff167fddf252ad1be2c89b69c2b068fc378daa952ba7f163c4a11628f55a4df523b3ef846040516112539190611446565b60405180910390a361126783600084611271565b505050565b505050565b505050565b600081519050919050565b600082825260208201905092915050565b60005b838110156112b0578082015181840152602081019050611295565b60008484015250505050565b6000601f19601f8301169050919050565b60006112d882611276565b6112e28185611281565b93506112f2818560208601611292565b6112fb816112bc565b840191505092915050565b6000602082019050818103600083015261132081846112cd565b905092915050565b600080fd5b600073ffffffffffffffffffffffffffffffffffffffff82169050919050565b60006113588261132d565b9050919050565b6113688161134d565b811461137357600080fd5b50565b6000813590506113858161135f565b92915050565b6000819050919050565b61139e8161138b565b81146113a957600080fd5b50565b6000813590506113bb81611395565b92915050565b600080604083850312156113d8576113d7611328565b5b60006113e685828601611376565b92505060206113f7858286016113ac565b9150509250929050565b60008115159050919050565b61141681611401565b82525050565b6000602082019050611431600083018461140d565b92915050565b6114408161138b565b82525050565b600060208201905061145b6000830184611437565b92915050565b60006020828403121561147757611476611328565b5b6000611485848285016113ac565b91505092915050565b6000806000606084860312156114a7576114a6611328565b5b60006114b586828701611376565b93505060206114c686828701611376565b92505060406114d7868287016113ac565b9150509250925092565b600060ff82169050919050565b6114f7816114e1565b82525050565b600060208201905061151260008301846114ee565b92915050565b60006020828403121561152e5761152d611328565b5b600061153c84828501611376565b91505092915050565b6000806040838503121561155c5761155b611328565b5b600061156a85828601611376565b925050602061157b85828601611376565b9150509250929050565b7f4e487b7100000000000000000000000000000000000000000000000000000000600052602260045260246000fd5b600060028204905060018216806115cc57607f821691505b6020821081036115df576115de611585565b5b50919050565b7f4552525f43414c4c45525f49535f4e4f545f544f4b454e5f4f574e4552000000600082015250565b600061161b601d83611281565b9150611626826115e5565b602082019050919050565b6000602082019050818103600083015261164a8161160e565b9050919050565b7f4e487b7100000000000000000000000000000000000000000000000000000000600052601160045260246000fd5b600061168b8261138b565b91506116968361138b565b92508282019050808211156116ae576116ad611651565b5b92915050565b7f4e4f545f464f525f53414c450000000000000000000000000000000000000000600082015250565b60006116ea600c83611281565b91506116f5826116b4565b602082019050919050565b60006020820190508181036000830152611719816116dd565b9050919050565b7f494e56414c49445f53414c455f50524943450000000000000000000000000000600082015250565b6000611756601283611281565b915061176182611720565b602082019050919050565b6000602082019050818103600083015261178581611749565b9050919050565b7f45524332303a2064656372656173656420616c6c6f77616e63652062656c6f7760008201527f207a65726f000000000000000000000000000000000000000000000000000000602082015250565b60006117e8602583611281565b91506117f38261178c565b604082019050919050565b60006020820190508181036000830152611817816117db565b9050919050565b7f45524332303a20617070726f76652066726f6d20746865207a65726f2061646460008201527f7265737300000000000000000000000000000000000000000000000000000000602082015250565b600061187a602483611281565b91506118858261181e565b604082019050919050565b600060208201905081810360008301526118a98161186d565b9050919050565b7f45524332303a20617070726f766520746f20746865207a65726f20616464726560008201527f7373000000000000000000000000000000000000000000000000000000000000602082015250565b600061190c602283611281565b9150611917826118b0565b604082019050919050565b6000602082019050818103600083015261193b816118ff565b9050919050565b7f45524332303a20696e73756666696369656e7420616c6c6f77616e6365000000600082015250565b6000611978601d83611281565b915061198382611942565b602082019050919050565b600060208201905081810360008301526119a78161196b565b9050919050565b7f45524332303a207472616e736665722066726f6d20746865207a65726f20616460008201527f6472657373000000000000000000000000000000000000000000000000000000602082015250565b6000611a0a602583611281565b9150611a15826119ae565b604082019050919050565b60006020820190508181036000830152611a39816119fd565b9050919050565b7f45524332303a207472616e7366657220746f20746865207a65726f206164647260008201527f6573730000000000000000000000000000000000000000000000000000000000602082015250565b6000611a9c602383611281565b9150611aa782611a40565b604082019050919050565b60006020820190508181036000830152611acb81611a8f565b9050919050565b7f45524332303a207472616e7366657220616d6f756e742065786365656473206260008201527f616c616e63650000000000000000000000000000000000000000000000000000602082015250565b6000611b2e602683611281565b9150611b3982611ad2565b604082019050919050565b60006020820190508181036000830152611b5d81611b21565b9050919050565b7f45524332303a206d696e7420746f20746865207a65726f206164647265737300600082015250565b6000611b9a601f83611281565b9150611ba582611b64565b602082019050919050565b60006020820190508181036000830152611bc981611b8d565b9050919050565b7f45524332303a206275726e2066726f6d20746865207a65726f2061646472657360008201527f7300000000000000000000000000000000000000000000000000000000000000602082015250565b6000611c2c602183611281565b9150611c3782611bd0565b604082019050919050565b60006020820190508181036000830152611c5b81611c1f565b9050919050565b7f45524332303a206275726e20616d6f756e7420657863656564732062616c616e60008201527f6365000000000000000000000000000000000000000000000000000000000000602082015250565b6000611cbe602283611281565b9150611cc982611c62565b604082019050919050565b60006020820190508181036000830152611ced81611cb1565b905091905056fea264697066735822122026cea22824393bb6c2a92612a0a958c5283b334d78ae04fb3a794700dbfd953364736f6c63430008110033",
  "linkReferences": {},
  "deployedLinkReferences": {}
}