{
  "_format": "hh-sol-artifact-1",
  "contractName": "NFTFractionlize",
  "sourceName": "contracts/FractionX/NFTFractionalize.sol",
  "abi": [
    {
      "inputs": [
        {
          "internalType": "contract IERC721Modified",
          "name": "",
          "type": "address"
        }
      ],
      "name": "contractToOwner",
      "outputs": [
        {
          "internalType": "address",
          "name": "",
          "type": "address"
        }
      ],
      "stateMutability": "view",
      "type": "function"
    },
    {
      "inputs": [
        {
          "internalType": "address",
          "name": "",
          "type": "address"
        },
        {
          "internalType": "address",
          "name": "",
          "type": "address"
        },
        {
          "internalType": "uint256",
          "name": "",
          "type": "uint256"
        },
        {
          "internalType": "bytes",
          "name": "",
          "type": "bytes"
        }
      ],
      "name": "onERC721Received",
      "outputs": [
        {
          "internalType": "bytes4",
          "name": "",
          "type": "bytes4"
        }
      ],
      "stateMutability": "nonpayable",
      "type": "function"
    },
    {
      "inputs": [
        {
          "internalType": "address",
          "name": "",
          "type": "address"
        }
      ],
      "name": "ownerData",
      "outputs": [
        {
          "internalType": "address",
          "name": "liquidator_",
          "type": "address"
        },
        {
          "internalType": "contract IERC721Modified",
          "name": "nftcontract_",
          "type": "address"
        },
        {
          "internalType": "contract ERC20Modified",
          "name": "erc20contract_",
          "type": "address"
        },
        {
          "internalType": "uint256",
          "name": "tokenId_",
          "type": "uint256"
        },
        {
          "internalType": "uint256",
          "name": "tokenAmount_",
          "type": "uint256"
        }
      ],
      "stateMutability": "view",
      "type": "function"
    },
    {
      "inputs": [],
      "name": "purchase",
      "outputs": [],
      "stateMutability": "nonpayable",
      "type": "function"
    },
    {
      "inputs": [
        {
          "internalType": "uint256",
          "name": "amount_",
          "type": "uint256"
        }
      ],
      "name": "putForSale",
      "outputs": [],
      "stateMutability": "nonpayable",
      "type": "function"
    },
    {
      "inputs": [
        {
          "internalType": "uint256",
          "name": "amount_",
          "type": "uint256"
        }
      ],
      "name": "redeemToken",
      "outputs": [],
      "stateMutability": "nonpayable",
      "type": "function"
    },
    {
      "inputs": [
        {
          "internalType": "address",
          "name": "nftcontract_",
          "type": "address"
        },
        {
          "internalType": "uint256",
          "name": "tokenId_",
          "type": "uint256"
        },
        {
          "internalType": "uint256",
          "name": "amount_",
          "type": "uint256"
        }
      ],
      "name": "transferNFT",
      "outputs": [],
      "stateMutability": "nonpayable",
      "type": "function"
    }
  ],
  "bytecode": "0x608060405234801561001057600080fd5b50614124806100206000396000f3fe60806040523480156200001157600080fd5b5060043610620000885760003560e01c806364edfbf0116200006357806364edfbf01462000103578063b2e76406146200010f578063b536271f146200012f578063f42512ce14620001695762000088565b8063013054c2146200008d578063150b7a0214620000ad5780631f078ced14620000e3575b600080fd5b620000ab6004803603810190620000a59190620010eb565b6200019f565b005b620000cb6004803603810190620000c59190620012e4565b62000659565b604051620000da9190620013b2565b60405180910390f35b620001016004803603810190620000fb9190620010eb565b6200066d565b005b6200010d620007ee565b005b6200012d6004803603810190620001279190620013cf565b62000a05565b005b6200014d60048036038101906200014791906200142b565b62000be1565b604051620001609594939291906200150f565b60405180910390f35b620001876004803603810190620001819190620015b1565b62000c77565b604051620001969190620015e3565b60405180910390f35b600060016000620001af62000caa565b73ffffffffffffffffffffffffffffffffffffffff1673ffffffffffffffffffffffffffffffffffffffff16815260200190815260200160002090508060020160009054906101000a900473ffffffffffffffffffffffffffffffffffffffff1673ffffffffffffffffffffffffffffffffffffffff1663f97ed5096040518163ffffffff1660e01b8152600401602060405180830381865afa1580156200025b573d6000803e3d6000fd5b505050506040513d601f19601f820116820180604052508101906200028191906200163d565b620002c3576040517f08c379a0000000000000000000000000000000000000000000000000000000008152600401620002ba90620016d0565b60405180910390fd5b818160020160009054906101000a900473ffffffffffffffffffffffffffffffffffffffff1673ffffffffffffffffffffffffffffffffffffffff166370a082316200030e62000caa565b6040518263ffffffff1660e01b81526004016200032c9190620015e3565b602060405180830381865afa1580156200034a573d6000803e3d6000fd5b505050506040513d601f19601f8201168201806040525081019062000370919062001709565b14620003b3576040517f08c379a0000000000000000000000000000000000000000000000000000000008152600401620003aa906200178b565b60405180910390fd5b60008160020160009054906101000a900473ffffffffffffffffffffffffffffffffffffffff1673ffffffffffffffffffffffffffffffffffffffff1663f51f96dd6040518163ffffffff1660e01b8152600401602060405180830381865afa15801562000425573d6000803e3d6000fd5b505050506040513d601f19601f820116820180604052508101906200044b919062001709565b905060008260020160009054906101000a900473ffffffffffffffffffffffffffffffffffffffff1673ffffffffffffffffffffffffffffffffffffffff166318160ddd6040518163ffffffff1660e01b8152600401602060405180830381865afa158015620004bf573d6000803e3d6000fd5b505050506040513d601f19601f82011682018060405250810190620004e5919062001709565b8483620004f39190620017dc565b620004ff919062001856565b90508260020160009054906101000a900473ffffffffffffffffffffffffffffffffffffffff1673ffffffffffffffffffffffffffffffffffffffff16639dc29fac6200054b62000caa565b866040518363ffffffff1660e01b81526004016200056b9291906200188e565b600060405180830381600087803b1580156200058657600080fd5b505af11580156200059b573d6000803e3d6000fd5b5050505060003373ffffffffffffffffffffffffffffffffffffffff1682604051620005c790620018f0565b60006040518083038185875af1925050503d806000811462000606576040519150601f19603f3d011682016040523d82523d6000602084013e6200060b565b606091505b505090508062000652576040517f08c379a0000000000000000000000000000000000000000000000000000000008152600401620006499062001957565b60405180910390fd5b5050505050565b600063150b7a0260e01b9050949350505050565b6000600160006200067d62000caa565b73ffffffffffffffffffffffffffffffffffffffff1673ffffffffffffffffffffffffffffffffffffffff1681526020019081526020016000209050620006c362000caa565b73ffffffffffffffffffffffffffffffffffffffff168160000160009054906101000a900473ffffffffffffffffffffffffffffffffffffffff1673ffffffffffffffffffffffffffffffffffffffff161462000757576040517f08c379a00000000000000000000000000000000000000000000000000000000081526004016200074e90620019c9565b60405180910390fd5b8060020160009054906101000a900473ffffffffffffffffffffffffffffffffffffffff1673ffffffffffffffffffffffffffffffffffffffff16631f078ced836040518263ffffffff1660e01b8152600401620007b69190620019eb565b600060405180830381600087803b158015620007d157600080fd5b505af1158015620007e6573d6000803e3d6000fd5b505050505050565b600060016000620007fe62000caa565b73ffffffffffffffffffffffffffffffffffffffff1673ffffffffffffffffffffffffffffffffffffffff16815260200190815260200160002090506200084462000caa565b73ffffffffffffffffffffffffffffffffffffffff168160000160009054906101000a900473ffffffffffffffffffffffffffffffffffffffff1673ffffffffffffffffffffffffffffffffffffffff1614620008d8576040517f08c379a0000000000000000000000000000000000000000000000000000000008152600401620008cf90620019c9565b60405180910390fd5b8060010160009054906101000a900473ffffffffffffffffffffffffffffffffffffffff1673ffffffffffffffffffffffffffffffffffffffff166342842e0e306200092362000caa565b84600301546040518463ffffffff1660e01b8152600401620009489392919062001a08565b600060405180830381600087803b1580156200096357600080fd5b505af115801562000978573d6000803e3d6000fd5b505050508060020160009054906101000a900473ffffffffffffffffffffffffffffffffffffffff1673ffffffffffffffffffffffffffffffffffffffff166364edfbf06040518163ffffffff1660e01b8152600401600060405180830381600087803b158015620009e957600080fd5b505af1158015620009fe573d6000803e3d6000fd5b5050505050565b6000811162000a4b576040517f08c379a000000000000000000000000000000000000000000000000000000000815260040162000a429062001a95565b60405180910390fd5b600083905062000a5a62000caa565b73ffffffffffffffffffffffffffffffffffffffff168173ffffffffffffffffffffffffffffffffffffffff16636352211e856040518263ffffffff1660e01b815260040162000aab9190620019eb565b602060405180830381865afa15801562000ac9573d6000803e3d6000fd5b505050506040513d601f19601f8201168201806040525081019062000aef919062001ace565b73ffffffffffffffffffffffffffffffffffffffff161462000b48576040517f08c379a000000000000000000000000000000000000000000000000000000000815260040162000b3f9062001b50565b60405180910390fd5b62000b5262000caa565b6000808373ffffffffffffffffffffffffffffffffffffffff1673ffffffffffffffffffffffffffffffffffffffff16815260200190815260200160002060006101000a81548173ffffffffffffffffffffffffffffffffffffffff021916908373ffffffffffffffffffffffffffffffffffffffff16021790555062000bdb81848462000cb2565b50505050565b60016020528060005260406000206000915090508060000160009054906101000a900473ffffffffffffffffffffffffffffffffffffffff16908060010160009054906101000a900473ffffffffffffffffffffffffffffffffffffffff16908060020160009054906101000a900473ffffffffffffffffffffffffffffffffffffffff16908060030154908060040154905085565b60006020528060005260406000206000915054906101000a900473ffffffffffffffffffffffffffffffffffffffff1681565b600033905090565b60008373ffffffffffffffffffffffffffffffffffffffff166306fdde036040518163ffffffff1660e01b8152600401600060405180830381865afa15801562000d00573d6000803e3d6000fd5b505050506040513d6000823e3d601f19601f8201168201806040525081019062000d2b919062001c52565b8473ffffffffffffffffffffffffffffffffffffffff166395d89b416040518163ffffffff1660e01b8152600401600060405180830381865afa15801562000d77573d6000803e3d6000fd5b505050506040513d6000823e3d601f19601f8201168201806040525081019062000da2919062001c52565b62000dac62000caa565b60405162000dba906200108e565b62000dc89392919062001cef565b604051809103906000f08015801562000de5573d6000803e3d6000fd5b50905060006040518060a0016040528062000dff62000caa565b73ffffffffffffffffffffffffffffffffffffffff1681526020018673ffffffffffffffffffffffffffffffffffffffff1681526020018373ffffffffffffffffffffffffffffffffffffffff168152602001858152602001848152509050806001600062000e6d62000caa565b73ffffffffffffffffffffffffffffffffffffffff1673ffffffffffffffffffffffffffffffffffffffff16815260200190815260200160002060008201518160000160006101000a81548173ffffffffffffffffffffffffffffffffffffffff021916908373ffffffffffffffffffffffffffffffffffffffff16021790555060208201518160010160006101000a81548173ffffffffffffffffffffffffffffffffffffffff021916908373ffffffffffffffffffffffffffffffffffffffff16021790555060408201518160020160006101000a81548173ffffffffffffffffffffffffffffffffffffffff021916908373ffffffffffffffffffffffffffffffffffffffff16021790555060608201518160030155608082015181600401559050508473ffffffffffffffffffffffffffffffffffffffff166342842e0e82600001513084606001516040518463ffffffff1660e01b815260040162000fda9392919062001a08565b600060405180830381600087803b15801562000ff557600080fd5b505af11580156200100a573d6000803e3d6000fd5b505050508173ffffffffffffffffffffffffffffffffffffffff166340c10f19826000015183608001516040518363ffffffff1660e01b8152600401620010539291906200188e565b600060405180830381600087803b1580156200106e57600080fd5b505af115801562001083573d6000803e3d6000fd5b505050505050505050565b6123b48062001d3b83390190565b6000604051905090565b600080fd5b600080fd5b6000819050919050565b620010c581620010b0565b8114620010d157600080fd5b50565b600081359050620010e581620010ba565b92915050565b600060208284031215620011045762001103620010a6565b5b60006200111484828501620010d4565b91505092915050565b600073ffffffffffffffffffffffffffffffffffffffff82169050919050565b60006200114a826200111d565b9050919050565b6200115c816200113d565b81146200116857600080fd5b50565b6000813590506200117c8162001151565b92915050565b600080fd5b600080fd5b6000601f19601f8301169050919050565b7f4e487b7100000000000000000000000000000000000000000000000000000000600052604160045260246000fd5b620011d7826200118c565b810181811067ffffffffffffffff82111715620011f957620011f86200119d565b5b80604052505050565b60006200120e6200109c565b90506200121c8282620011cc565b919050565b600067ffffffffffffffff8211156200123f576200123e6200119d565b5b6200124a826200118c565b9050602081019050919050565b82818337600083830152505050565b60006200127d620012778462001221565b62001202565b9050828152602081018484840111156200129c576200129b62001187565b5b620012a984828562001257565b509392505050565b600082601f830112620012c957620012c862001182565b5b8135620012db84826020860162001266565b91505092915050565b60008060008060808587031215620013015762001300620010a6565b5b600062001311878288016200116b565b945050602062001324878288016200116b565b93505060406200133787828801620010d4565b925050606085013567ffffffffffffffff8111156200135b576200135a620010ab565b5b6200136987828801620012b1565b91505092959194509250565b60007fffffffff0000000000000000000000000000000000000000000000000000000082169050919050565b620013ac8162001375565b82525050565b6000602082019050620013c96000830184620013a1565b92915050565b600080600060608486031215620013eb57620013ea620010a6565b5b6000620013fb868287016200116b565b93505060206200140e86828701620010d4565b92505060406200142186828701620010d4565b9150509250925092565b600060208284031215620014445762001443620010a6565b5b600062001454848285016200116b565b91505092915050565b62001468816200113d565b82525050565b6000819050919050565b600062001499620014936200148d846200111d565b6200146e565b6200111d565b9050919050565b6000620014ad8262001478565b9050919050565b6000620014c182620014a0565b9050919050565b620014d381620014b4565b82525050565b6000620014e682620014a0565b9050919050565b620014f881620014d9565b82525050565b6200150981620010b0565b82525050565b600060a0820190506200152660008301886200145d565b620015356020830187620014c8565b620015446040830186620014ed565b620015536060830185620014fe565b620015626080830184620014fe565b9695505050505050565b600062001579826200113d565b9050919050565b6200158b816200156c565b81146200159757600080fd5b50565b600081359050620015ab8162001580565b92915050565b600060208284031215620015ca57620015c9620010a6565b5b6000620015da848285016200159a565b91505092915050565b6000602082019050620015fa60008301846200145d565b92915050565b60008115159050919050565b620016178162001600565b81146200162357600080fd5b50565b60008151905062001637816200160c565b92915050565b600060208284031215620016565762001655620010a6565b5b6000620016668482850162001626565b91505092915050565b600082825260208201905092915050565b7f43414e27545f52454445454d5f544f4b454e5f59455400000000000000000000600082015250565b6000620016b86016836200166f565b9150620016c58262001680565b602082019050919050565b60006020820190508181036000830152620016eb81620016a9565b9050919050565b6000815190506200170381620010ba565b92915050565b600060208284031215620017225762001721620010a6565b5b60006200173284828501620016f2565b91505092915050565b7f494e56414c49445f414d4f554e545f464f525f524544454d5054494f4e000000600082015250565b600062001773601d836200166f565b915062001780826200173b565b602082019050919050565b60006020820190508181036000830152620017a68162001764565b9050919050565b7f4e487b7100000000000000000000000000000000000000000000000000000000600052601160045260246000fd5b6000620017e982620010b0565b9150620017f683620010b0565b92508282026200180681620010b0565b9150828204841483151762001820576200181f620017ad565b5b5092915050565b7f4e487b7100000000000000000000000000000000000000000000000000000000600052601260045260246000fd5b60006200186382620010b0565b91506200187083620010b0565b92508262001883576200188262001827565b5b828204905092915050565b6000604082019050620018a560008301856200145d565b620018b46020830184620014fe565b9392505050565b600081905092915050565b50565b6000620018d8600083620018bb565b9150620018e582620018c6565b600082019050919050565b6000620018fd82620018c9565b9150819050919050565b7f4552525f56414c55455f4e4f545f5452414e5346455245440000000000000000600082015250565b60006200193f6018836200166f565b91506200194c8262001907565b602082019050919050565b60006020820190508181036000830152620019728162001930565b9050919050565b7f4552525f53454e4445525f49535f4e4f545f4c495155494441544f5200000000600082015250565b6000620019b1601c836200166f565b9150620019be8262001979565b602082019050919050565b60006020820190508181036000830152620019e481620019a2565b9050919050565b600060208201905062001a026000830184620014fe565b92915050565b600060608201905062001a1f60008301866200145d565b62001a2e60208301856200145d565b62001a3d6040830184620014fe565b949350505050565b7f544f4b454e5f414d4f554e545f43414e27545f42455f5a45524f000000000000600082015250565b600062001a7d601a836200166f565b915062001a8a8262001a45565b602082019050919050565b6000602082019050818103600083015262001ab08162001a6e565b9050919050565b60008151905062001ac88162001151565b92915050565b60006020828403121562001ae75762001ae6620010a6565b5b600062001af78482850162001ab7565b91505092915050565b7f53454e4445525f49535f4e4f545f4f574e455200000000000000000000000000600082015250565b600062001b386013836200166f565b915062001b458262001b00565b602082019050919050565b6000602082019050818103600083015262001b6b8162001b29565b9050919050565b600067ffffffffffffffff82111562001b905762001b8f6200119d565b5b62001b9b826200118c565b9050602081019050919050565b60005b8381101562001bc857808201518184015260208101905062001bab565b60008484015250505050565b600062001beb62001be58462001b72565b62001202565b90508281526020810184848401111562001c0a5762001c0962001187565b5b62001c1784828562001ba8565b509392505050565b600082601f83011262001c375762001c3662001182565b5b815162001c4984826020860162001bd4565b91505092915050565b60006020828403121562001c6b5762001c6a620010a6565b5b600082015167ffffffffffffffff81111562001c8c5762001c8b620010ab565b5b62001c9a8482850162001c1f565b91505092915050565b600081519050919050565b600062001cbb8262001ca3565b62001cc781856200166f565b935062001cd981856020860162001ba8565b62001ce4816200118c565b840191505092915050565b6000606082019050818103600083015262001d0b818662001cae565b9050818103602083015262001d21818562001cae565b905062001d3260408301846200145d565b94935050505056fe60a06040523480156200001157600080fd5b50604051620023b4380380620023b4833981810160405281019062000037919062000294565b828281600390816200004a919062000579565b5080600490816200005c919062000579565b5050508073ffffffffffffffffffffffffffffffffffffffff1660808173ffffffffffffffffffffffffffffffffffffffff168152505050505062000660565b6000604051905090565b600080fd5b600080fd5b600080fd5b600080fd5b6000601f19601f8301169050919050565b7f4e487b7100000000000000000000000000000000000000000000000000000000600052604160045260246000fd5b6200010582620000ba565b810181811067ffffffffffffffff82111715620001275762000126620000cb565b5b80604052505050565b60006200013c6200009c565b90506200014a8282620000fa565b919050565b600067ffffffffffffffff8211156200016d576200016c620000cb565b5b6200017882620000ba565b9050602081019050919050565b60005b83811015620001a557808201518184015260208101905062000188565b60008484015250505050565b6000620001c8620001c2846200014f565b62000130565b905082815260208101848484011115620001e757620001e6620000b5565b5b620001f484828562000185565b509392505050565b600082601f830112620002145762000213620000b0565b5b815162000226848260208601620001b1565b91505092915050565b600073ffffffffffffffffffffffffffffffffffffffff82169050919050565b60006200025c826200022f565b9050919050565b6200026e816200024f565b81146200027a57600080fd5b50565b6000815190506200028e8162000263565b92915050565b600080600060608486031215620002b057620002af620000a6565b5b600084015167ffffffffffffffff811115620002d157620002d0620000ab565b5b620002df86828701620001fc565b935050602084015167ffffffffffffffff811115620003035762000302620000ab565b5b6200031186828701620001fc565b925050604062000324868287016200027d565b9150509250925092565b600081519050919050565b7f4e487b7100000000000000000000000000000000000000000000000000000000600052602260045260246000fd5b600060028204905060018216806200038157607f821691505b60208210810362000397576200039662000339565b5b50919050565b60008190508160005260206000209050919050565b60006020601f8301049050919050565b600082821b905092915050565b600060088302620004017fffffffffffffffffffffffffffffffffffffffffffffffffffffffffffffffff82620003c2565b6200040d8683620003c2565b95508019841693508086168417925050509392505050565b6000819050919050565b6000819050919050565b60006200045a620004546200044e8462000425565b6200042f565b62000425565b9050919050565b6000819050919050565b620004768362000439565b6200048e620004858262000461565b848454620003cf565b825550505050565b600090565b620004a562000496565b620004b28184846200046b565b505050565b5b81811015620004da57620004ce6000826200049b565b600181019050620004b8565b5050565b601f8211156200052957620004f3816200039d565b620004fe84620003b2565b810160208510156200050e578190505b620005266200051d85620003b2565b830182620004b7565b50505b505050565b600082821c905092915050565b60006200054e600019846008026200052e565b1980831691505092915050565b60006200056983836200053b565b9150826002028217905092915050565b62000584826200032e565b67ffffffffffffffff811115620005a0576200059f620000cb565b5b620005ac825462000368565b620005b9828285620004de565b600060209050601f831160018114620005f15760008415620005dc578287015190505b620005e885826200055b565b86555062000658565b601f19841662000601866200039d565b60005b828110156200062b5784890151825560018201915060208501945060208101905062000604565b868310156200064b578489015162000647601f8916826200053b565b8355505b6001600288020188555050505b505050505050565b608051611d2a6200068a6000396000818161052c0152818161064e01526108a20152611d2a6000f3fe6080604052600436106101095760003560e01c806364edfbf011610095578063a457c2d711610064578063a457c2d71461035e578063a9059cbb1461039b578063dd62ed3e146103d8578063f51f96dd14610415578063f97ed5091461044057610109565b806364edfbf0146102c357806370a08231146102cd57806395d89b411461030a5780639dc29fac1461033557610109565b806323b872dd116100dc57806323b872dd146101ca578063313ce56714610207578063395093511461023257806340c10f191461026f578063466ccac01461029857610109565b806306fdde031461010e578063095ea7b31461013957806318160ddd146101765780631f078ced146101a1575b600080fd5b34801561011a57600080fd5b5061012361046b565b6040516101309190611306565b60405180910390f35b34801561014557600080fd5b50610160600480360381019061015b91906113c1565b6104fd565b60405161016d919061141c565b60405180910390f35b34801561018257600080fd5b5061018b610520565b6040516101989190611446565b60405180910390f35b3480156101ad57600080fd5b506101c860048036038101906101c39190611461565b61052a565b005b3480156101d657600080fd5b506101f160048036038101906101ec919061148e565b6105dd565b6040516101fe919061141c565b60405180910390f35b34801561021357600080fd5b5061021c61060c565b60405161022991906114fd565b60405180910390f35b34801561023e57600080fd5b50610259600480360381019061025491906113c1565b610615565b604051610266919061141c565b60405180910390f35b34801561027b57600080fd5b50610296600480360381019061029191906113c1565b61064c565b005b3480156102a457600080fd5b506102ad6106e8565b6040516102ba919061141c565b60405180910390f35b6102cb6106fb565b005b3480156102d957600080fd5b506102f460048036038101906102ef9190611518565b6107c6565b6040516103019190611446565b60405180910390f35b34801561031657600080fd5b5061031f61080e565b60405161032c9190611306565b60405180910390f35b34801561034157600080fd5b5061035c600480360381019061035791906113c1565b6108a0565b005b34801561036a57600080fd5b50610385600480360381019061038091906113c1565b61093c565b604051610392919061141c565b60405180910390f35b3480156103a757600080fd5b506103c260048036038101906103bd91906113c1565b6109b3565b6040516103cf919061141c565b60405180910390f35b3480156103e457600080fd5b506103ff60048036038101906103fa9190611545565b6109d6565b60405161040c9190611446565b60405180910390f35b34801561042157600080fd5b5061042a610a5d565b6040516104379190611446565b60405180910390f35b34801561044c57600080fd5b50610455610a63565b604051610462919061141c565b60405180910390f35b60606003805461047a906115b4565b80601f01602080910402602001604051908101604052809291908181526020018280546104a6906115b4565b80156104f35780601f106104c8576101008083540402835291602001916104f3565b820191906000526020600020905b8154815290600101906020018083116104d657829003601f168201915b5050505050905090565b600080610508610a76565b9050610515818585610a7e565b600191505092915050565b6000600254905090565b7f000000000000000000000000000000000000000000000000000000000000000073ffffffffffffffffffffffffffffffffffffffff163373ffffffffffffffffffffffffffffffffffffffff16146105b8576040517f08c379a00000000000000000000000000000000000000000000000000000000081526004016105af90611631565b60405180910390fd5b6001600560006101000a81548160ff0219169083151502179055508060068190555050565b6000806105e8610a76565b90506105f5858285610c47565b610600858585610cd3565b60019150509392505050565b60006012905090565b600080610620610a76565b905061064181858561063285896109d6565b61063c9190611680565b610a7e565b600191505092915050565b7f000000000000000000000000000000000000000000000000000000000000000073ffffffffffffffffffffffffffffffffffffffff163373ffffffffffffffffffffffffffffffffffffffff16146106da576040517f08c379a00000000000000000000000000000000000000000000000000000000081526004016106d190611631565b60405180910390fd5b6106e48282610f49565b5050565b600560009054906101000a900460ff1681565b600560009054906101000a900460ff1661074a576040517f08c379a000000000000000000000000000000000000000000000000000000000815260040161074190611700565b60405180910390fd5b600654341461078e576040517f08c379a00000000000000000000000000000000000000000000000000000000081526004016107859061176c565b60405180910390fd5b6000600560006101000a81548160ff0219169083151502179055506001600760006101000a81548160ff021916908315150217905550565b60008060008373ffffffffffffffffffffffffffffffffffffffff1673ffffffffffffffffffffffffffffffffffffffff168152602001908152602001600020549050919050565b60606004805461081d906115b4565b80601f0160208091040260200160405190810160405280929190818152602001828054610849906115b4565b80156108965780601f1061086b57610100808354040283529160200191610896565b820191906000526020600020905b81548152906001019060200180831161087957829003601f168201915b5050505050905090565b7f000000000000000000000000000000000000000000000000000000000000000073ffffffffffffffffffffffffffffffffffffffff163373ffffffffffffffffffffffffffffffffffffffff161461092e576040517f08c379a000000000000000000000000000000000000000000000000000000000815260040161092590611631565b60405180910390fd5b610938828261109f565b5050565b600080610947610a76565b9050600061095582866109d6565b90508381101561099a576040517f08c379a0000000000000000000000000000000000000000000000000000000008152600401610991906117fe565b60405180910390fd5b6109a78286868403610a7e565b60019250505092915050565b6000806109be610a76565b90506109cb818585610cd3565b600191505092915050565b6000600160008473ffffffffffffffffffffffffffffffffffffffff1673ffffffffffffffffffffffffffffffffffffffff16815260200190815260200160002060008373ffffffffffffffffffffffffffffffffffffffff1673ffffffffffffffffffffffffffffffffffffffff16815260200190815260200160002054905092915050565b60065481565b600760009054906101000a900460ff1681565b600033905090565b600073ffffffffffffffffffffffffffffffffffffffff168373ffffffffffffffffffffffffffffffffffffffff1603610aed576040517f08c379a0000000000000000000000000000000000000000000000000000000008152600401610ae490611890565b60405180910390fd5b600073ffffffffffffffffffffffffffffffffffffffff168273ffffffffffffffffffffffffffffffffffffffff1603610b5c576040517f08c379a0000000000000000000000000000000000000000000000000000000008152600401610b5390611922565b60405180910390fd5b80600160008573ffffffffffffffffffffffffffffffffffffffff1673ffffffffffffffffffffffffffffffffffffffff16815260200190815260200160002060008473ffffffffffffffffffffffffffffffffffffffff1673ffffffffffffffffffffffffffffffffffffffff168152602001908152602001600020819055508173ffffffffffffffffffffffffffffffffffffffff168373ffffffffffffffffffffffffffffffffffffffff167f8c5be1e5ebec7d5bd14f71427d1e84f3dd0314c0f7b2291e5b200ac8c7c3b92583604051610c3a9190611446565b60405180910390a3505050565b6000610c5384846109d6565b90507fffffffffffffffffffffffffffffffffffffffffffffffffffffffffffffffff8114610ccd5781811015610cbf576040517f08c379a0000000000000000000000000000000000000000000000000000000008152600401610cb69061198e565b60405180910390fd5b610ccc8484848403610a7e565b5b50505050565b600073ffffffffffffffffffffffffffffffffffffffff168373ffffffffffffffffffffffffffffffffffffffff1603610d42576040517f08c379a0000000000000000000000000000000000000000000000000000000008152600401610d3990611a20565b60405180910390fd5b600073ffffffffffffffffffffffffffffffffffffffff168273ffffffffffffffffffffffffffffffffffffffff1603610db1576040517f08c379a0000000000000000000000000000000000000000000000000000000008152600401610da890611ab2565b60405180910390fd5b610dbc83838361126c565b60008060008573ffffffffffffffffffffffffffffffffffffffff1673ffffffffffffffffffffffffffffffffffffffff16815260200190815260200160002054905081811015610e42576040517f08c379a0000000000000000000000000000000000000000000000000000000008152600401610e3990611b44565b60405180910390fd5b8181036000808673ffffffffffffffffffffffffffffffffffffffff1673ffffffffffffffffffffffffffffffffffffffff16815260200190815260200160002081905550816000808573ffffffffffffffffffffffffffffffffffffffff1673ffffffffffffffffffffffffffffffffffffffff168152602001908152602001600020600082825401925050819055508273ffffffffffffffffffffffffffffffffffffffff168473ffffffffffffffffffffffffffffffffffffffff167fddf252ad1be2c89b69c2b068fc378daa952ba7f163c4a11628f55a4df523b3ef84604051610f309190611446565b60405180910390a3610f43848484611271565b50505050565b600073ffffffffffffffffffffffffffffffffffffffff168273ffffffffffffffffffffffffffffffffffffffff1603610fb8576040517f08c379a0000000000000000000000000000000000000000000000000000000008152600401610faf90611bb0565b60405180910390fd5b610fc46000838361126c565b8060026000828254610fd69190611680565b92505081905550806000808473ffffffffffffffffffffffffffffffffffffffff1673ffffffffffffffffffffffffffffffffffffffff168152602001908152602001600020600082825401925050819055508173ffffffffffffffffffffffffffffffffffffffff16600073ffffffffffffffffffffffffffffffffffffffff167fddf252ad1be2c89b69c2b068fc378daa952ba7f163c4a11628f55a4df523b3ef836040516110879190611446565b60405180910390a361109b60008383611271565b5050565b600073ffffffffffffffffffffffffffffffffffffffff168273ffffffffffffffffffffffffffffffffffffffff160361110e576040517f08c379a000000000000000000000000000000000000000000000000000000000815260040161110590611c42565b60405180910390fd5b61111a8260008361126c565b60008060008473ffffffffffffffffffffffffffffffffffffffff1673ffffffffffffffffffffffffffffffffffffffff168152602001908152602001600020549050818110156111a0576040517f08c379a000000000000000000000000000000000000000000000000000000000815260040161119790611cd4565b60405180910390fd5b8181036000808573ffffffffffffffffffffffffffffffffffffffff1673ffffffffffffffffffffffffffffffffffffffff1681526020019081526020016000208190555081600260008282540392505081905550600073ffffffffffffffffffffffffffffffffffffffff168373ffffffffffffffffffffffffffffffffffffffff167fddf252ad1be2c89b69c2b068fc378daa952ba7f163c4a11628f55a4df523b3ef846040516112539190611446565b60405180910390a361126783600084611271565b505050565b505050565b505050565b600081519050919050565b600082825260208201905092915050565b60005b838110156112b0578082015181840152602081019050611295565b60008484015250505050565b6000601f19601f8301169050919050565b60006112d882611276565b6112e28185611281565b93506112f2818560208601611292565b6112fb816112bc565b840191505092915050565b6000602082019050818103600083015261132081846112cd565b905092915050565b600080fd5b600073ffffffffffffffffffffffffffffffffffffffff82169050919050565b60006113588261132d565b9050919050565b6113688161134d565b811461137357600080fd5b50565b6000813590506113858161135f565b92915050565b6000819050919050565b61139e8161138b565b81146113a957600080fd5b50565b6000813590506113bb81611395565b92915050565b600080604083850312156113d8576113d7611328565b5b60006113e685828601611376565b92505060206113f7858286016113ac565b9150509250929050565b60008115159050919050565b61141681611401565b82525050565b6000602082019050611431600083018461140d565b92915050565b6114408161138b565b82525050565b600060208201905061145b6000830184611437565b92915050565b60006020828403121561147757611476611328565b5b6000611485848285016113ac565b91505092915050565b6000806000606084860312156114a7576114a6611328565b5b60006114b586828701611376565b93505060206114c686828701611376565b92505060406114d7868287016113ac565b9150509250925092565b600060ff82169050919050565b6114f7816114e1565b82525050565b600060208201905061151260008301846114ee565b92915050565b60006020828403121561152e5761152d611328565b5b600061153c84828501611376565b91505092915050565b6000806040838503121561155c5761155b611328565b5b600061156a85828601611376565b925050602061157b85828601611376565b9150509250929050565b7f4e487b7100000000000000000000000000000000000000000000000000000000600052602260045260246000fd5b600060028204905060018216806115cc57607f821691505b6020821081036115df576115de611585565b5b50919050565b7f4552525f43414c4c45525f49535f4e4f545f544f4b454e5f4f574e4552000000600082015250565b600061161b601d83611281565b9150611626826115e5565b602082019050919050565b6000602082019050818103600083015261164a8161160e565b9050919050565b7f4e487b7100000000000000000000000000000000000000000000000000000000600052601160045260246000fd5b600061168b8261138b565b91506116968361138b565b92508282019050808211156116ae576116ad611651565b5b92915050565b7f4e4f545f464f525f53414c450000000000000000000000000000000000000000600082015250565b60006116ea600c83611281565b91506116f5826116b4565b602082019050919050565b60006020820190508181036000830152611719816116dd565b9050919050565b7f494e56414c49445f53414c455f50524943450000000000000000000000000000600082015250565b6000611756601283611281565b915061176182611720565b602082019050919050565b6000602082019050818103600083015261178581611749565b9050919050565b7f45524332303a2064656372656173656420616c6c6f77616e63652062656c6f7760008201527f207a65726f000000000000000000000000000000000000000000000000000000602082015250565b60006117e8602583611281565b91506117f38261178c565b604082019050919050565b60006020820190508181036000830152611817816117db565b9050919050565b7f45524332303a20617070726f76652066726f6d20746865207a65726f2061646460008201527f7265737300000000000000000000000000000000000000000000000000000000602082015250565b600061187a602483611281565b91506118858261181e565b604082019050919050565b600060208201905081810360008301526118a98161186d565b9050919050565b7f45524332303a20617070726f766520746f20746865207a65726f20616464726560008201527f7373000000000000000000000000000000000000000000000000000000000000602082015250565b600061190c602283611281565b9150611917826118b0565b604082019050919050565b6000602082019050818103600083015261193b816118ff565b9050919050565b7f45524332303a20696e73756666696369656e7420616c6c6f77616e6365000000600082015250565b6000611978601d83611281565b915061198382611942565b602082019050919050565b600060208201905081810360008301526119a78161196b565b9050919050565b7f45524332303a207472616e736665722066726f6d20746865207a65726f20616460008201527f6472657373000000000000000000000000000000000000000000000000000000602082015250565b6000611a0a602583611281565b9150611a15826119ae565b604082019050919050565b60006020820190508181036000830152611a39816119fd565b9050919050565b7f45524332303a207472616e7366657220746f20746865207a65726f206164647260008201527f6573730000000000000000000000000000000000000000000000000000000000602082015250565b6000611a9c602383611281565b9150611aa782611a40565b604082019050919050565b60006020820190508181036000830152611acb81611a8f565b9050919050565b7f45524332303a207472616e7366657220616d6f756e742065786365656473206260008201527f616c616e63650000000000000000000000000000000000000000000000000000602082015250565b6000611b2e602683611281565b9150611b3982611ad2565b604082019050919050565b60006020820190508181036000830152611b5d81611b21565b9050919050565b7f45524332303a206d696e7420746f20746865207a65726f206164647265737300600082015250565b6000611b9a601f83611281565b9150611ba582611b64565b602082019050919050565b60006020820190508181036000830152611bc981611b8d565b9050919050565b7f45524332303a206275726e2066726f6d20746865207a65726f2061646472657360008201527f7300000000000000000000000000000000000000000000000000000000000000602082015250565b6000611c2c602183611281565b9150611c3782611bd0565b604082019050919050565b60006020820190508181036000830152611c5b81611c1f565b9050919050565b7f45524332303a206275726e20616d6f756e7420657863656564732062616c616e60008201527f6365000000000000000000000000000000000000000000000000000000000000602082015250565b6000611cbe602283611281565b9150611cc982611c62565b604082019050919050565b60006020820190508181036000830152611ced81611cb1565b905091905056fea264697066735822122026cea22824393bb6c2a92612a0a958c5283b334d78ae04fb3a794700dbfd953364736f6c63430008110033a26469706673582212208c745d489cb363e55d17dde3b49ce54c194d1de25c9e593cd864f3ed175a58a464736f6c63430008110033",
  "linkReferences": {},
  "deployedLinkReferences": {}
}