{
  "_format": "hh-sol-artifact-1",
  "contractName": "NFTFractionalize",
  "sourceName": "contracts/FractionX/NFTFractionalize.sol",
  "abi": [
    {
      "inputs": [
        {
          "internalType": "address",
          "name": "",
          "type": "address"
        }
      ],
      "name": "fractionalData",
      "outputs": [
        {
          "internalType": "address",
          "name": "liquidator",
          "type": "address"
        },
        {
          "internalType": "contract IERC721Modified",
          "name": "nftContract",
          "type": "address"
        },
        {
          "internalType": "contract ERC20Modified",
          "name": "erc20Contract",
          "type": "address"
        },
        {
          "internalType": "uint256",
          "name": "tokenId",
          "type": "uint256"
        },
        {
          "internalType": "uint256",
          "name": "tokenAmount",
          "type": "uint256"
        }
      ],
      "stateMutability": "view",
      "type": "function"
    },
    {
      "inputs": [
        {
          "internalType": "address",
          "name": "",
          "type": "address"
        },
        {
          "internalType": "address",
          "name": "",
          "type": "address"
        },
        {
          "internalType": "uint256",
          "name": "",
          "type": "uint256"
        },
        {
          "internalType": "bytes",
          "name": "",
          "type": "bytes"
        }
      ],
      "name": "onERC721Received",
      "outputs": [
        {
          "internalType": "bytes4",
          "name": "",
          "type": "bytes4"
        }
      ],
      "stateMutability": "nonpayable",
      "type": "function"
    },
    {
      "inputs": [
        {
          "internalType": "address",
          "name": "erc20TokenAddress",
          "type": "address"
        }
      ],
      "name": "purchase",
      "outputs": [],
      "stateMutability": "payable",
      "type": "function"
    },
    {
      "inputs": [
        {
          "internalType": "address",
          "name": "erc20TokenAddress",
          "type": "address"
        },
        {
          "internalType": "uint256",
          "name": "amount",
          "type": "uint256"
        }
      ],
      "name": "putForSale",
      "outputs": [],
      "stateMutability": "nonpayable",
      "type": "function"
    },
    {
      "inputs": [
        {
          "internalType": "address",
          "name": "erc20TokenAddress",
          "type": "address"
        },
        {
          "internalType": "uint256",
          "name": "amount",
          "type": "uint256"
        }
      ],
      "name": "redeemToken",
      "outputs": [],
      "stateMutability": "nonpayable",
      "type": "function"
    },
    {
      "inputs": [
        {
          "internalType": "string",
          "name": "name_",
          "type": "string"
        },
        {
          "internalType": "string",
          "name": "symbol_",
          "type": "string"
        },
        {
          "internalType": "address",
          "name": "nftContractAddr",
          "type": "address"
        },
        {
          "internalType": "uint256",
          "name": "tokenId",
          "type": "uint256"
        },
        {
          "internalType": "uint256",
          "name": "amount",
          "type": "uint256"
        }
      ],
      "name": "transferNFT",
      "outputs": [],
      "stateMutability": "nonpayable",
      "type": "function"
    }
  ],
  "bytecode": "0x608060405234801561001057600080fd5b5061418b806100206000396000f3fe6080604052600436106200005c5760003560e01c8063101f2d2f14620000615780631230cd6514620000a9578063150b7a0214620000d757806325b31a97146200011b57806339eec3eb146200013b578063830cbbbd1462000169575b600080fd5b3480156200006e57600080fd5b506200008d600480360381019062000087919062000f58565b62000197565b604051620000a095949392919062001046565b60405180910390f35b348015620000b657600080fd5b50620000d56004803603810190620000cf919062001236565b6200022d565b005b348015620000e457600080fd5b50620001036004803603810190620000fd9190620013b0565b62000387565b6040516200011291906200147e565b60405180910390f35b62000139600480360381019062000133919062000f58565b6200039b565b005b3480156200014857600080fd5b506200016760048036038101906200016191906200149b565b6200072a565b005b3480156200017657600080fd5b506200019560048036038101906200018f91906200149b565b62000872565b005b60006020528060005260406000206000915090508060000160009054906101000a900473ffffffffffffffffffffffffffffffffffffffff16908060010160009054906101000a900473ffffffffffffffffffffffffffffffffffffffff16908060020160009054906101000a900473ffffffffffffffffffffffffffffffffffffffff16908060030154908060040154905085565b6000811162000273576040517f08c379a00000000000000000000000000000000000000000000000000000000081526004016200026a9062001543565b60405180910390fd5b60008390506200028262000b94565b73ffffffffffffffffffffffffffffffffffffffff168173ffffffffffffffffffffffffffffffffffffffff16636352211e856040518263ffffffff1660e01b8152600401620002d3919062001565565b602060405180830381865afa158015620002f1573d6000803e3d6000fd5b505050506040513d601f19601f8201168201806040525081019062000317919062001599565b73ffffffffffffffffffffffffffffffffffffffff161462000370576040517f08c379a000000000000000000000000000000000000000000000000000000000815260040162000367906200161b565b60405180910390fd5b6200037f868683868662000b9c565b505050505050565b600063150b7a0260e01b9050949350505050565b60008060008373ffffffffffffffffffffffffffffffffffffffff1673ffffffffffffffffffffffffffffffffffffffff1681526020019081526020016000206040518060a00160405290816000820160009054906101000a900473ffffffffffffffffffffffffffffffffffffffff1673ffffffffffffffffffffffffffffffffffffffff1673ffffffffffffffffffffffffffffffffffffffff1681526020016001820160009054906101000a900473ffffffffffffffffffffffffffffffffffffffff1673ffffffffffffffffffffffffffffffffffffffff1673ffffffffffffffffffffffffffffffffffffffff1681526020016002820160009054906101000a900473ffffffffffffffffffffffffffffffffffffffff1673ffffffffffffffffffffffffffffffffffffffff1673ffffffffffffffffffffffffffffffffffffffff16815260200160038201548152602001600482015481525050905060008273ffffffffffffffffffffffffffffffffffffffff16826040015173ffffffffffffffffffffffffffffffffffffffff1663f51f96dd6040518163ffffffff1660e01b8152600401602060405180830381865afa15801562000567573d6000803e3d6000fd5b505050506040513d601f19601f820116820180604052508101906200058d919062001654565b6040516024016040516020818303038152906040527f64edfbf0000000000000000000000000000000000000000000000000000000007bffffffffffffffffffffffffffffffffffffffffffffffffffffffff19166020820180517bffffffffffffffffffffffffffffffffffffffffffffffffffffffff83818316178352505050506040516200061f9190620016ff565b60006040518083038185875af1925050503d80600081146200065e576040519150601f19603f3d011682016040523d82523d6000602084013e62000663565b606091505b5050905080620006aa576040517f08c379a0000000000000000000000000000000000000000000000000000000008152600401620006a19062001768565b60405180910390fd5b816020015173ffffffffffffffffffffffffffffffffffffffff166323b872dd303385606001516040518463ffffffff1660e01b8152600401620006f1939291906200178a565b600060405180830381600087803b1580156200070c57600080fd5b505af115801562000721573d6000803e3d6000fd5b50505050505050565b60008273ffffffffffffffffffffffffffffffffffffffff168260405160240162000756919062001565565b6040516020818303038152906040527f1f078ced000000000000000000000000000000000000000000000000000000007bffffffffffffffffffffffffffffffffffffffffffffffffffffffff19166020820180517bffffffffffffffffffffffffffffffffffffffffffffffffffffffff8381831617835250505050604051620007e29190620016ff565b6000604051808303816000865af19150503d806000811462000821576040519150601f19603f3d011682016040523d82523d6000602084013e62000826565b606091505b50509050806200086d576040517f08c379a000000000000000000000000000000000000000000000000000000000815260040162000864906200183d565b60405180910390fd5b505050565b60008060008473ffffffffffffffffffffffffffffffffffffffff1673ffffffffffffffffffffffffffffffffffffffff1681526020019081526020016000206040518060a00160405290816000820160009054906101000a900473ffffffffffffffffffffffffffffffffffffffff1673ffffffffffffffffffffffffffffffffffffffff1673ffffffffffffffffffffffffffffffffffffffff1681526020016001820160009054906101000a900473ffffffffffffffffffffffffffffffffffffffff1673ffffffffffffffffffffffffffffffffffffffff1673ffffffffffffffffffffffffffffffffffffffff1681526020016002820160009054906101000a900473ffffffffffffffffffffffffffffffffffffffff1673ffffffffffffffffffffffffffffffffffffffff1673ffffffffffffffffffffffffffffffffffffffff16815260200160038201548152602001600482015481525050905060008373ffffffffffffffffffffffffffffffffffffffff16826040015173ffffffffffffffffffffffffffffffffffffffff1663f51f96dd6040518163ffffffff1660e01b8152600401602060405180830381865afa15801562000a3e573d6000803e3d6000fd5b505050506040513d601f19601f8201168201806040525081019062000a64919062001654565b8460405160240162000a77919062001565565b6040516020818303038152906040527f013054c2000000000000000000000000000000000000000000000000000000007bffffffffffffffffffffffffffffffffffffffffffffffffffffffff19166020820180517bffffffffffffffffffffffffffffffffffffffffffffffffffffffff838183161783525050505060405162000b039190620016ff565b60006040518083038185875af1925050503d806000811462000b42576040519150601f19603f3d011682016040523d82523d6000602084013e62000b47565b606091505b505090508062000b8e576040517f08c379a000000000000000000000000000000000000000000000000000000000815260040162000b8590620018d5565b60405180910390fd5b50505050565b600033905090565b60008585338460405162000bb09062000ed1565b62000bbf949392919062001943565b604051809103906000f08015801562000bdc573d6000803e3d6000fd5b50905060006040518060a0016040528062000bf662000b94565b73ffffffffffffffffffffffffffffffffffffffff1681526020018673ffffffffffffffffffffffffffffffffffffffff1681526020018373ffffffffffffffffffffffffffffffffffffffff168152602001858152602001848152509050806000808473ffffffffffffffffffffffffffffffffffffffff1673ffffffffffffffffffffffffffffffffffffffff16815260200190815260200160002060008201518160000160006101000a81548173ffffffffffffffffffffffffffffffffffffffff021916908373ffffffffffffffffffffffffffffffffffffffff16021790555060208201518160010160006101000a81548173ffffffffffffffffffffffffffffffffffffffff021916908373ffffffffffffffffffffffffffffffffffffffff16021790555060408201518160020160006101000a81548173ffffffffffffffffffffffffffffffffffffffff021916908373ffffffffffffffffffffffffffffffffffffffff160217905550606082015181600301556080820151816004015590505060008573ffffffffffffffffffffffffffffffffffffffff1633308760405160240162000db0939291906200178a565b6040516020818303038152906040527f23b872dd000000000000000000000000000000000000000000000000000000007bffffffffffffffffffffffffffffffffffffffffffffffffffffffff19166020820180517bffffffffffffffffffffffffffffffffffffffffffffffffffffffff838183161783525050505060405162000e3c9190620016ff565b6000604051808303816000865af19150503d806000811462000e7b576040519150601f19603f3d011682016040523d82523d6000602084013e62000e80565b606091505b505090508062000ec7576040517f08c379a000000000000000000000000000000000000000000000000000000000815260040162000ebe90620019ee565b60405180910390fd5b5050505050505050565b6127458062001a1183390190565b6000604051905090565b600080fd5b600080fd5b600073ffffffffffffffffffffffffffffffffffffffff82169050919050565b600062000f208262000ef3565b9050919050565b62000f328162000f13565b811462000f3e57600080fd5b50565b60008135905062000f528162000f27565b92915050565b60006020828403121562000f715762000f7062000ee9565b5b600062000f818482850162000f41565b91505092915050565b62000f958162000f13565b82525050565b6000819050919050565b600062000fc662000fc062000fba8462000ef3565b62000f9b565b62000ef3565b9050919050565b600062000fda8262000fa5565b9050919050565b600062000fee8262000fcd565b9050919050565b620010008162000fe1565b82525050565b6000620010138262000fcd565b9050919050565b620010258162001006565b82525050565b6000819050919050565b62001040816200102b565b82525050565b600060a0820190506200105d600083018862000f8a565b6200106c602083018762000ff5565b6200107b60408301866200101a565b6200108a606083018562001035565b62001099608083018462001035565b9695505050505050565b600080fd5b600080fd5b6000601f19601f8301169050919050565b7f4e487b7100000000000000000000000000000000000000000000000000000000600052604160045260246000fd5b620010f882620010ad565b810181811067ffffffffffffffff821117156200111a5762001119620010be565b5b80604052505050565b60006200112f62000edf565b90506200113d8282620010ed565b919050565b600067ffffffffffffffff82111562001160576200115f620010be565b5b6200116b82620010ad565b9050602081019050919050565b82818337600083830152505050565b60006200119e620011988462001142565b62001123565b905082815260208101848484011115620011bd57620011bc620010a8565b5b620011ca84828562001178565b509392505050565b600082601f830112620011ea57620011e9620010a3565b5b8135620011fc84826020860162001187565b91505092915050565b62001210816200102b565b81146200121c57600080fd5b50565b600081359050620012308162001205565b92915050565b600080600080600060a0868803121562001255576200125462000ee9565b5b600086013567ffffffffffffffff81111562001276576200127562000eee565b5b6200128488828901620011d2565b955050602086013567ffffffffffffffff811115620012a857620012a762000eee565b5b620012b688828901620011d2565b9450506040620012c98882890162000f41565b9350506060620012dc888289016200121f565b9250506080620012ef888289016200121f565b9150509295509295909350565b600067ffffffffffffffff8211156200131a5762001319620010be565b5b6200132582620010ad565b9050602081019050919050565b6000620013496200134384620012fc565b62001123565b905082815260208101848484011115620013685762001367620010a8565b5b6200137584828562001178565b509392505050565b600082601f830112620013955762001394620010a3565b5b8135620013a784826020860162001332565b91505092915050565b60008060008060808587031215620013cd57620013cc62000ee9565b5b6000620013dd8782880162000f41565b9450506020620013f08782880162000f41565b935050604062001403878288016200121f565b925050606085013567ffffffffffffffff81111562001427576200142662000eee565b5b62001435878288016200137d565b91505092959194509250565b60007fffffffff0000000000000000000000000000000000000000000000000000000082169050919050565b620014788162001441565b82525050565b60006020820190506200149560008301846200146d565b92915050565b60008060408385031215620014b557620014b462000ee9565b5b6000620014c58582860162000f41565b9250506020620014d8858286016200121f565b9150509250929050565b600082825260208201905092915050565b7f544f4b454e5f414d4f554e545f43414e27545f42455f5a45524f000000000000600082015250565b60006200152b601a83620014e2565b91506200153882620014f3565b602082019050919050565b600060208201905081810360008301526200155e816200151c565b9050919050565b60006020820190506200157c600083018462001035565b92915050565b600081519050620015938162000f27565b92915050565b600060208284031215620015b257620015b162000ee9565b5b6000620015c28482850162001582565b91505092915050565b7f53454e4445525f49535f4e4f545f4f574e455200000000000000000000000000600082015250565b600062001603601383620014e2565b91506200161082620015cb565b602082019050919050565b600060208201905081810360008301526200163681620015f4565b9050919050565b6000815190506200164e8162001205565b92915050565b6000602082840312156200166d576200166c62000ee9565b5b60006200167d848285016200163d565b91505092915050565b600081519050919050565b600081905092915050565b60005b83811015620016bc5780820151818401526020810190506200169f565b60008484015250505050565b6000620016d58262001686565b620016e1818562001691565b9350620016f38185602086016200169c565b80840191505092915050565b60006200170d8284620016c8565b915081905092915050565b7f4661696c656420746f2063616c6c2070757263686173652066756e6374696f6e600082015250565b600062001750602083620014e2565b91506200175d8262001718565b602082019050919050565b60006020820190508181036000830152620017838162001741565b9050919050565b6000606082019050620017a1600083018662000f8a565b620017b0602083018562000f8a565b620017bf604083018462001035565b949350505050565b7f4661696c656420746f2063616c6c20707574466f7253616c652066756e63746960008201527f6f6e000000000000000000000000000000000000000000000000000000000000602082015250565b600062001825602283620014e2565b91506200183282620017c7565b604082019050919050565b60006020820190508181036000830152620018588162001816565b9050919050565b7f4661696c656420746f2063616c6c2072656465656d546f6b656e2066756e637460008201527f696f6e0000000000000000000000000000000000000000000000000000000000602082015250565b6000620018bd602383620014e2565b9150620018ca826200185f565b604082019050919050565b60006020820190508181036000830152620018f081620018ae565b9050919050565b600081519050919050565b60006200190f82620018f7565b6200191b8185620014e2565b93506200192d8185602086016200169c565b6200193881620010ad565b840191505092915050565b600060808201905081810360008301526200195f818762001902565b9050818103602083015262001975818662001902565b905062001986604083018562000f8a565b62001995606083018462001035565b95945050505050565b7f4661696c656420746f207472616e73666572204e465400000000000000000000600082015250565b6000620019d6601683620014e2565b9150620019e3826200199e565b602082019050919050565b6000602082019050818103600083015262001a0981620019c7565b905091905056fe60a06040523480156200001157600080fd5b506040516200274538038062002745833981810160405281019062000037919062000459565b838381600390816200004a91906200074a565b5080600490816200005c91906200074a565b5050508173ffffffffffffffffffffffffffffffffffffffff1660808173ffffffffffffffffffffffffffffffffffffffff1681525050620000a58282620000af60201b60201c565b505050506200094c565b600073ffffffffffffffffffffffffffffffffffffffff168273ffffffffffffffffffffffffffffffffffffffff160362000121576040517f08c379a0000000000000000000000000000000000000000000000000000000008152600401620001189062000892565b60405180910390fd5b62000135600083836200021c60201b60201c565b8060026000828254620001499190620008e3565b92505081905550806000808473ffffffffffffffffffffffffffffffffffffffff1673ffffffffffffffffffffffffffffffffffffffff168152602001908152602001600020600082825401925050819055508173ffffffffffffffffffffffffffffffffffffffff16600073ffffffffffffffffffffffffffffffffffffffff167fddf252ad1be2c89b69c2b068fc378daa952ba7f163c4a11628f55a4df523b3ef83604051620001fc91906200092f565b60405180910390a362000218600083836200022160201b60201c565b5050565b505050565b505050565b6000604051905090565b600080fd5b600080fd5b600080fd5b600080fd5b6000601f19601f8301169050919050565b7f4e487b7100000000000000000000000000000000000000000000000000000000600052604160045260246000fd5b6200028f8262000244565b810181811067ffffffffffffffff82111715620002b157620002b062000255565b5b80604052505050565b6000620002c662000226565b9050620002d4828262000284565b919050565b600067ffffffffffffffff821115620002f757620002f662000255565b5b620003028262000244565b9050602081019050919050565b60005b838110156200032f57808201518184015260208101905062000312565b60008484015250505050565b6000620003526200034c84620002d9565b620002ba565b9050828152602081018484840111156200037157620003706200023f565b5b6200037e8482856200030f565b509392505050565b600082601f8301126200039e576200039d6200023a565b5b8151620003b08482602086016200033b565b91505092915050565b600073ffffffffffffffffffffffffffffffffffffffff82169050919050565b6000620003e682620003b9565b9050919050565b620003f881620003d9565b81146200040457600080fd5b50565b6000815190506200041881620003ed565b92915050565b6000819050919050565b62000433816200041e565b81146200043f57600080fd5b50565b600081519050620004538162000428565b92915050565b6000806000806080858703121562000476576200047562000230565b5b600085015167ffffffffffffffff81111562000497576200049662000235565b5b620004a58782880162000386565b945050602085015167ffffffffffffffff811115620004c957620004c862000235565b5b620004d78782880162000386565b9350506040620004ea8782880162000407565b9250506060620004fd8782880162000442565b91505092959194509250565b600081519050919050565b7f4e487b7100000000000000000000000000000000000000000000000000000000600052602260045260246000fd5b600060028204905060018216806200055c57607f821691505b60208210810362000572576200057162000514565b5b50919050565b60008190508160005260206000209050919050565b60006020601f8301049050919050565b600082821b905092915050565b600060088302620005dc7fffffffffffffffffffffffffffffffffffffffffffffffffffffffffffffffff826200059d565b620005e886836200059d565b95508019841693508086168417925050509392505050565b6000819050919050565b60006200062b620006256200061f846200041e565b62000600565b6200041e565b9050919050565b6000819050919050565b62000647836200060a565b6200065f620006568262000632565b848454620005aa565b825550505050565b600090565b6200067662000667565b620006838184846200063c565b505050565b5b81811015620006ab576200069f6000826200066c565b60018101905062000689565b5050565b601f821115620006fa57620006c48162000578565b620006cf846200058d565b81016020851015620006df578190505b620006f7620006ee856200058d565b83018262000688565b50505b505050565b600082821c905092915050565b60006200071f60001984600802620006ff565b1980831691505092915050565b60006200073a83836200070c565b9150826002028217905092915050565b620007558262000509565b67ffffffffffffffff81111562000771576200077062000255565b5b6200077d825462000543565b6200078a828285620006af565b600060209050601f831160018114620007c25760008415620007ad578287015190505b620007b985826200072c565b86555062000829565b601f198416620007d28662000578565b60005b82811015620007fc57848901518255600182019150602085019450602081019050620007d5565b868310156200081c578489015162000818601f8916826200070c565b8355505b6001600288020188555050505b505050505050565b600082825260208201905092915050565b7f45524332303a206d696e7420746f20746865207a65726f206164647265737300600082015250565b60006200087a601f8362000831565b9150620008878262000842565b602082019050919050565b60006020820190508181036000830152620008ad816200086b565b9050919050565b7f4e487b7100000000000000000000000000000000000000000000000000000000600052601160045260246000fd5b6000620008f0826200041e565b9150620008fd836200041e565b9250828201905080821115620009185762000917620008b4565b5b92915050565b62000929816200041e565b82525050565b60006020820190506200094660008301846200091e565b92915050565b608051611ddd6200096860003960006109fd0152611ddd6000f3fe6080604052600436106101095760003560e01c806364edfbf011610095578063a9059cbb11610064578063a9059cbb14610372578063b2bdfa7b146103af578063dd62ed3e146103da578063f51f96dd14610417578063f97ed5091461044257610109565b806364edfbf0146102c357806370a08231146102cd57806395d89b411461030a578063a457c2d71461033557610109565b80631f078ced116100dc5780631f078ced146101ca57806320b08dc2146101f357806323b872dd1461021e578063313ce5671461025b578063395093511461028657610109565b8063013054c21461010e57806306fdde0314610137578063095ea7b31461016257806318160ddd1461019f575b600080fd5b34801561011a57600080fd5b50610135600480360381019061013091906111a4565b61046d565b005b34801561014357600080fd5b5061014c610656565b6040516101599190611261565b60405180910390f35b34801561016e57600080fd5b50610189600480360381019061018491906112e1565b6106e8565b604051610196919061133c565b60405180910390f35b3480156101ab57600080fd5b506101b461070b565b6040516101c19190611366565b60405180910390f35b3480156101d657600080fd5b506101f160048036038101906101ec91906111a4565b610715565b005b3480156101ff57600080fd5b5061020861073a565b604051610215919061133c565b60405180910390f35b34801561022a57600080fd5b5061024560048036038101906102409190611381565b61074d565b604051610252919061133c565b60405180910390f35b34801561026757600080fd5b5061027061077c565b60405161027d91906113f0565b60405180910390f35b34801561029257600080fd5b506102ad60048036038101906102a891906112e1565b610785565b6040516102ba919061133c565b60405180910390f35b6102cb6107bc565b005b3480156102d957600080fd5b506102f460048036038101906102ef919061140b565b610887565b6040516103019190611366565b60405180910390f35b34801561031657600080fd5b5061031f6108cf565b60405161032c9190611261565b60405180910390f35b34801561034157600080fd5b5061035c600480360381019061035791906112e1565b610961565b604051610369919061133c565b60405180910390f35b34801561037e57600080fd5b50610399600480360381019061039491906112e1565b6109d8565b6040516103a6919061133c565b60405180910390f35b3480156103bb57600080fd5b506103c46109fb565b6040516103d19190611447565b60405180910390f35b3480156103e657600080fd5b5061040160048036038101906103fc9190611462565b610a1f565b60405161040e9190611366565b60405180910390f35b34801561042357600080fd5b5061042c610aa6565b6040516104399190611366565b60405180910390f35b34801561044e57600080fd5b50610457610aac565b604051610464919061133c565b60405180910390f35b600760009054906101000a900460ff166104bc576040517f08c379a00000000000000000000000000000000000000000000000000000000081526004016104b3906114ee565b60405180910390fd5b803073ffffffffffffffffffffffffffffffffffffffff166370a08231336040518263ffffffff1660e01b81526004016104f69190611447565b602060405180830381865afa158015610513573d6000803e3d6000fd5b505050506040513d601f19601f820116820180604052508101906105379190611523565b14610577576040517f08c379a000000000000000000000000000000000000000000000000000000000815260040161056e9061159c565b60405180910390fd5b600061058161070b565b8260065461058f91906115eb565b610599919061165c565b90506105a53383610abf565b60003373ffffffffffffffffffffffffffffffffffffffff16826040516105cb906116be565b60006040518083038185875af1925050503d8060008114610608576040519150601f19603f3d011682016040523d82523d6000602084013e61060d565b606091505b5050905080610651576040517f08c379a00000000000000000000000000000000000000000000000000000000081526004016106489061171f565b60405180910390fd5b505050565b6060600380546106659061176e565b80601f01602080910402602001604051908101604052809291908181526020018280546106919061176e565b80156106de5780601f106106b3576101008083540402835291602001916106de565b820191906000526020600020905b8154815290600101906020018083116106c157829003601f168201915b5050505050905090565b6000806106f3610c8c565b9050610700818585610c94565b600191505092915050565b6000600254905090565b806006819055506001600560006101000a81548160ff02191690831515021790555050565b600560009054906101000a900460ff1681565b600080610758610c8c565b9050610765858285610e5d565b610770858585610ee9565b60019150509392505050565b60006012905090565b600080610790610c8c565b90506107b18185856107a28589610a1f565b6107ac919061179f565b610c94565b600191505092915050565b600560009054906101000a900460ff1661080b576040517f08c379a00000000000000000000000000000000000000000000000000000000081526004016108029061181f565b60405180910390fd5b600654341461084f576040517f08c379a00000000000000000000000000000000000000000000000000000000081526004016108469061188b565b60405180910390fd5b6000600560006101000a81548160ff0219169083151502179055506001600760006101000a81548160ff021916908315150217905550565b60008060008373ffffffffffffffffffffffffffffffffffffffff1673ffffffffffffffffffffffffffffffffffffffff168152602001908152602001600020549050919050565b6060600480546108de9061176e565b80601f016020809104026020016040519081016040528092919081815260200182805461090a9061176e565b80156109575780601f1061092c57610100808354040283529160200191610957565b820191906000526020600020905b81548152906001019060200180831161093a57829003601f168201915b5050505050905090565b60008061096c610c8c565b9050600061097a8286610a1f565b9050838110156109bf576040517f08c379a00000000000000000000000000000000000000000000000000000000081526004016109b69061191d565b60405180910390fd5b6109cc8286868403610c94565b60019250505092915050565b6000806109e3610c8c565b90506109f0818585610ee9565b600191505092915050565b7f000000000000000000000000000000000000000000000000000000000000000081565b6000600160008473ffffffffffffffffffffffffffffffffffffffff1673ffffffffffffffffffffffffffffffffffffffff16815260200190815260200160002060008373ffffffffffffffffffffffffffffffffffffffff1673ffffffffffffffffffffffffffffffffffffffff16815260200190815260200160002054905092915050565b60065481565b600760009054906101000a900460ff1681565b600073ffffffffffffffffffffffffffffffffffffffff168273ffffffffffffffffffffffffffffffffffffffff1603610b2e576040517f08c379a0000000000000000000000000000000000000000000000000000000008152600401610b25906119af565b60405180910390fd5b610b3a8260008361115f565b60008060008473ffffffffffffffffffffffffffffffffffffffff1673ffffffffffffffffffffffffffffffffffffffff16815260200190815260200160002054905081811015610bc0576040517f08c379a0000000000000000000000000000000000000000000000000000000008152600401610bb790611a41565b60405180910390fd5b8181036000808573ffffffffffffffffffffffffffffffffffffffff1673ffffffffffffffffffffffffffffffffffffffff1681526020019081526020016000208190555081600260008282540392505081905550600073ffffffffffffffffffffffffffffffffffffffff168373ffffffffffffffffffffffffffffffffffffffff167fddf252ad1be2c89b69c2b068fc378daa952ba7f163c4a11628f55a4df523b3ef84604051610c739190611366565b60405180910390a3610c8783600084611164565b505050565b600033905090565b600073ffffffffffffffffffffffffffffffffffffffff168373ffffffffffffffffffffffffffffffffffffffff1603610d03576040517f08c379a0000000000000000000000000000000000000000000000000000000008152600401610cfa90611ad3565b60405180910390fd5b600073ffffffffffffffffffffffffffffffffffffffff168273ffffffffffffffffffffffffffffffffffffffff1603610d72576040517f08c379a0000000000000000000000000000000000000000000000000000000008152600401610d6990611b65565b60405180910390fd5b80600160008573ffffffffffffffffffffffffffffffffffffffff1673ffffffffffffffffffffffffffffffffffffffff16815260200190815260200160002060008473ffffffffffffffffffffffffffffffffffffffff1673ffffffffffffffffffffffffffffffffffffffff168152602001908152602001600020819055508173ffffffffffffffffffffffffffffffffffffffff168373ffffffffffffffffffffffffffffffffffffffff167f8c5be1e5ebec7d5bd14f71427d1e84f3dd0314c0f7b2291e5b200ac8c7c3b92583604051610e509190611366565b60405180910390a3505050565b6000610e698484610a1f565b90507fffffffffffffffffffffffffffffffffffffffffffffffffffffffffffffffff8114610ee35781811015610ed5576040517f08c379a0000000000000000000000000000000000000000000000000000000008152600401610ecc90611bd1565b60405180910390fd5b610ee28484848403610c94565b5b50505050565b600073ffffffffffffffffffffffffffffffffffffffff168373ffffffffffffffffffffffffffffffffffffffff1603610f58576040517f08c379a0000000000000000000000000000000000000000000000000000000008152600401610f4f90611c63565b60405180910390fd5b600073ffffffffffffffffffffffffffffffffffffffff168273ffffffffffffffffffffffffffffffffffffffff1603610fc7576040517f08c379a0000000000000000000000000000000000000000000000000000000008152600401610fbe90611cf5565b60405180910390fd5b610fd283838361115f565b60008060008573ffffffffffffffffffffffffffffffffffffffff1673ffffffffffffffffffffffffffffffffffffffff16815260200190815260200160002054905081811015611058576040517f08c379a000000000000000000000000000000000000000000000000000000000815260040161104f90611d87565b60405180910390fd5b8181036000808673ffffffffffffffffffffffffffffffffffffffff1673ffffffffffffffffffffffffffffffffffffffff16815260200190815260200160002081905550816000808573ffffffffffffffffffffffffffffffffffffffff1673ffffffffffffffffffffffffffffffffffffffff168152602001908152602001600020600082825401925050819055508273ffffffffffffffffffffffffffffffffffffffff168473ffffffffffffffffffffffffffffffffffffffff167fddf252ad1be2c89b69c2b068fc378daa952ba7f163c4a11628f55a4df523b3ef846040516111469190611366565b60405180910390a3611159848484611164565b50505050565b505050565b505050565b600080fd5b6000819050919050565b6111818161116e565b811461118c57600080fd5b50565b60008135905061119e81611178565b92915050565b6000602082840312156111ba576111b9611169565b5b60006111c88482850161118f565b91505092915050565b600081519050919050565b600082825260208201905092915050565b60005b8381101561120b5780820151818401526020810190506111f0565b60008484015250505050565b6000601f19601f8301169050919050565b6000611233826111d1565b61123d81856111dc565b935061124d8185602086016111ed565b61125681611217565b840191505092915050565b6000602082019050818103600083015261127b8184611228565b905092915050565b600073ffffffffffffffffffffffffffffffffffffffff82169050919050565b60006112ae82611283565b9050919050565b6112be816112a3565b81146112c957600080fd5b50565b6000813590506112db816112b5565b92915050565b600080604083850312156112f8576112f7611169565b5b6000611306858286016112cc565b92505060206113178582860161118f565b9150509250929050565b60008115159050919050565b61133681611321565b82525050565b6000602082019050611351600083018461132d565b92915050565b6113608161116e565b82525050565b600060208201905061137b6000830184611357565b92915050565b60008060006060848603121561139a57611399611169565b5b60006113a8868287016112cc565b93505060206113b9868287016112cc565b92505060406113ca8682870161118f565b9150509250925092565b600060ff82169050919050565b6113ea816113d4565b82525050565b600060208201905061140560008301846113e1565b92915050565b60006020828403121561142157611420611169565b5b600061142f848285016112cc565b91505092915050565b611441816112a3565b82525050565b600060208201905061145c6000830184611438565b92915050565b6000806040838503121561147957611478611169565b5b6000611487858286016112cc565b9250506020611498858286016112cc565b9150509250929050565b7f43414e5f4e4f545f52454445454d5f544f4b454e5f5945540000000000000000600082015250565b60006114d86018836111dc565b91506114e3826114a2565b602082019050919050565b60006020820190508181036000830152611507816114cb565b9050919050565b60008151905061151d81611178565b92915050565b60006020828403121561153957611538611169565b5b60006115478482850161150e565b91505092915050565b7f494e56414c49445f414d4f554e545f464f525f524544454d5054494f4e000000600082015250565b6000611586601d836111dc565b915061159182611550565b602082019050919050565b600060208201905081810360008301526115b581611579565b9050919050565b7f4e487b7100000000000000000000000000000000000000000000000000000000600052601160045260246000fd5b60006115f68261116e565b91506116018361116e565b925082820261160f8161116e565b91508282048414831517611626576116256115bc565b5b5092915050565b7f4e487b7100000000000000000000000000000000000000000000000000000000600052601260045260246000fd5b60006116678261116e565b91506116728361116e565b9250826116825761168161162d565b5b828204905092915050565b600081905092915050565b50565b60006116a860008361168d565b91506116b382611698565b600082019050919050565b60006116c98261169b565b9150819050919050565b7f56414c55455f5452414e534645525f4641494c45440000000000000000000000600082015250565b60006117096015836111dc565b9150611714826116d3565b602082019050919050565b60006020820190508181036000830152611738816116fc565b9050919050565b7f4e487b7100000000000000000000000000000000000000000000000000000000600052602260045260246000fd5b6000600282049050600182168061178657607f821691505b6020821081036117995761179861173f565b5b50919050565b60006117aa8261116e565b91506117b58361116e565b92508282019050808211156117cd576117cc6115bc565b5b92915050565b7f4e4f545f464f525f53414c450000000000000000000000000000000000000000600082015250565b6000611809600c836111dc565b9150611814826117d3565b602082019050919050565b60006020820190508181036000830152611838816117fc565b9050919050565b7f494e56414c49445f53414c455f50524943450000000000000000000000000000600082015250565b60006118756012836111dc565b91506118808261183f565b602082019050919050565b600060208201905081810360008301526118a481611868565b9050919050565b7f45524332303a2064656372656173656420616c6c6f77616e63652062656c6f7760008201527f207a65726f000000000000000000000000000000000000000000000000000000602082015250565b60006119076025836111dc565b9150611912826118ab565b604082019050919050565b60006020820190508181036000830152611936816118fa565b9050919050565b7f45524332303a206275726e2066726f6d20746865207a65726f2061646472657360008201527f7300000000000000000000000000000000000000000000000000000000000000602082015250565b60006119996021836111dc565b91506119a48261193d565b604082019050919050565b600060208201905081810360008301526119c88161198c565b9050919050565b7f45524332303a206275726e20616d6f756e7420657863656564732062616c616e60008201527f6365000000000000000000000000000000000000000000000000000000000000602082015250565b6000611a2b6022836111dc565b9150611a36826119cf565b604082019050919050565b60006020820190508181036000830152611a5a81611a1e565b9050919050565b7f45524332303a20617070726f76652066726f6d20746865207a65726f2061646460008201527f7265737300000000000000000000000000000000000000000000000000000000602082015250565b6000611abd6024836111dc565b9150611ac882611a61565b604082019050919050565b60006020820190508181036000830152611aec81611ab0565b9050919050565b7f45524332303a20617070726f766520746f20746865207a65726f20616464726560008201527f7373000000000000000000000000000000000000000000000000000000000000602082015250565b6000611b4f6022836111dc565b9150611b5a82611af3565b604082019050919050565b60006020820190508181036000830152611b7e81611b42565b9050919050565b7f45524332303a20696e73756666696369656e7420616c6c6f77616e6365000000600082015250565b6000611bbb601d836111dc565b9150611bc682611b85565b602082019050919050565b60006020820190508181036000830152611bea81611bae565b9050919050565b7f45524332303a207472616e736665722066726f6d20746865207a65726f20616460008201527f6472657373000000000000000000000000000000000000000000000000000000602082015250565b6000611c4d6025836111dc565b9150611c5882611bf1565b604082019050919050565b60006020820190508181036000830152611c7c81611c40565b9050919050565b7f45524332303a207472616e7366657220746f20746865207a65726f206164647260008201527f6573730000000000000000000000000000000000000000000000000000000000602082015250565b6000611cdf6023836111dc565b9150611cea82611c83565b604082019050919050565b60006020820190508181036000830152611d0e81611cd2565b9050919050565b7f45524332303a207472616e7366657220616d6f756e742065786365656473206260008201527f616c616e63650000000000000000000000000000000000000000000000000000602082015250565b6000611d716026836111dc565b9150611d7c82611d15565b604082019050919050565b60006020820190508181036000830152611da081611d64565b905091905056fea26469706673582212208cbc62ce04f7be40084529681f8b855ba18e157c63f061bce96de5e3ad2914e864736f6c63430008110033a2646970667358221220f93cd02b9cb1ef3fed6fa3677796032a49011aabca437423a65e3d7c6cda96c164736f6c63430008110033",
  "linkReferences": {},
  "deployedLinkReferences": {}
}