{
  "_format": "hh-sol-artifact-1",
  "contractName": "Fractional_NFT",
  "sourceName": "contracts/NFT-Fractionalization.sol",
  "abi": [
    {
      "inputs": [
        {
          "internalType": "string",
          "name": "name_",
          "type": "string"
        },
        {
          "internalType": "string",
          "name": "symbol_",
          "type": "string"
        },
        {
          "internalType": "address",
          "name": "nftcontract_",
          "type": "address"
        }
      ],
      "stateMutability": "nonpayable",
      "type": "constructor"
    },
    {
      "anonymous": false,
      "inputs": [
        {
          "indexed": true,
          "internalType": "address",
          "name": "owner",
          "type": "address"
        },
        {
          "indexed": true,
          "internalType": "address",
          "name": "spender",
          "type": "address"
        },
        {
          "indexed": false,
          "internalType": "uint256",
          "name": "value",
          "type": "uint256"
        }
      ],
      "name": "Approval",
      "type": "event"
    },
    {
      "anonymous": false,
      "inputs": [
        {
          "indexed": true,
          "internalType": "address",
          "name": "previousOwner",
          "type": "address"
        },
        {
          "indexed": true,
          "internalType": "address",
          "name": "newOwner",
          "type": "address"
        }
      ],
      "name": "OwnershipTransferred",
      "type": "event"
    },
    {
      "anonymous": false,
      "inputs": [
        {
          "indexed": true,
          "internalType": "address",
          "name": "from",
          "type": "address"
        },
        {
          "indexed": true,
          "internalType": "address",
          "name": "to",
          "type": "address"
        },
        {
          "indexed": false,
          "internalType": "uint256",
          "name": "value",
          "type": "uint256"
        }
      ],
      "name": "Transfer",
      "type": "event"
    },
    {
      "inputs": [],
      "name": "DOMAIN_SEPARATOR",
      "outputs": [
        {
          "internalType": "bytes32",
          "name": "",
          "type": "bytes32"
        }
      ],
      "stateMutability": "view",
      "type": "function"
    },
    {
      "inputs": [
        {
          "internalType": "address",
          "name": "owner",
          "type": "address"
        },
        {
          "internalType": "address",
          "name": "spender",
          "type": "address"
        }
      ],
      "name": "allowance",
      "outputs": [
        {
          "internalType": "uint256",
          "name": "",
          "type": "uint256"
        }
      ],
      "stateMutability": "view",
      "type": "function"
    },
    {
      "inputs": [
        {
          "internalType": "address",
          "name": "spender",
          "type": "address"
        },
        {
          "internalType": "uint256",
          "name": "amount",
          "type": "uint256"
        }
      ],
      "name": "approve",
      "outputs": [
        {
          "internalType": "bool",
          "name": "",
          "type": "bool"
        }
      ],
      "stateMutability": "nonpayable",
      "type": "function"
    },
    {
      "inputs": [
        {
          "internalType": "address",
          "name": "account",
          "type": "address"
        }
      ],
      "name": "balanceOf",
      "outputs": [
        {
          "internalType": "uint256",
          "name": "",
          "type": "uint256"
        }
      ],
      "stateMutability": "view",
      "type": "function"
    },
    {
      "inputs": [],
      "name": "canRedeem",
      "outputs": [
        {
          "internalType": "bool",
          "name": "",
          "type": "bool"
        }
      ],
      "stateMutability": "view",
      "type": "function"
    },
    {
      "inputs": [],
      "name": "decimals",
      "outputs": [
        {
          "internalType": "uint8",
          "name": "",
          "type": "uint8"
        }
      ],
      "stateMutability": "view",
      "type": "function"
    },
    {
      "inputs": [
        {
          "internalType": "address",
          "name": "spender",
          "type": "address"
        },
        {
          "internalType": "uint256",
          "name": "subtractedValue",
          "type": "uint256"
        }
      ],
      "name": "decreaseAllowance",
      "outputs": [
        {
          "internalType": "bool",
          "name": "",
          "type": "bool"
        }
      ],
      "stateMutability": "nonpayable",
      "type": "function"
    },
    {
      "inputs": [],
      "name": "forSale",
      "outputs": [
        {
          "internalType": "bool",
          "name": "",
          "type": "bool"
        }
      ],
      "stateMutability": "view",
      "type": "function"
    },
    {
      "inputs": [
        {
          "internalType": "address",
          "name": "spender",
          "type": "address"
        },
        {
          "internalType": "uint256",
          "name": "addedValue",
          "type": "uint256"
        }
      ],
      "name": "increaseAllowance",
      "outputs": [
        {
          "internalType": "bool",
          "name": "",
          "type": "bool"
        }
      ],
      "stateMutability": "nonpayable",
      "type": "function"
    },
    {
      "inputs": [],
      "name": "name",
      "outputs": [
        {
          "internalType": "string",
          "name": "",
          "type": "string"
        }
      ],
      "stateMutability": "view",
      "type": "function"
    },
    {
      "inputs": [
        {
          "internalType": "address",
          "name": "owner",
          "type": "address"
        }
      ],
      "name": "nonces",
      "outputs": [
        {
          "internalType": "uint256",
          "name": "",
          "type": "uint256"
        }
      ],
      "stateMutability": "view",
      "type": "function"
    },
    {
      "inputs": [
        {
          "internalType": "address",
          "name": "",
          "type": "address"
        },
        {
          "internalType": "address",
          "name": "",
          "type": "address"
        },
        {
          "internalType": "uint256",
          "name": "",
          "type": "uint256"
        },
        {
          "internalType": "bytes",
          "name": "",
          "type": "bytes"
        }
      ],
      "name": "onERC721Received",
      "outputs": [
        {
          "internalType": "bytes4",
          "name": "",
          "type": "bytes4"
        }
      ],
      "stateMutability": "nonpayable",
      "type": "function"
    },
    {
      "inputs": [],
      "name": "owner",
      "outputs": [
        {
          "internalType": "address",
          "name": "",
          "type": "address"
        }
      ],
      "stateMutability": "view",
      "type": "function"
    },
    {
      "inputs": [
        {
          "internalType": "address",
          "name": "owner",
          "type": "address"
        },
        {
          "internalType": "address",
          "name": "spender",
          "type": "address"
        },
        {
          "internalType": "uint256",
          "name": "value",
          "type": "uint256"
        },
        {
          "internalType": "uint256",
          "name": "deadline",
          "type": "uint256"
        },
        {
          "internalType": "uint8",
          "name": "v",
          "type": "uint8"
        },
        {
          "internalType": "bytes32",
          "name": "r",
          "type": "bytes32"
        },
        {
          "internalType": "bytes32",
          "name": "s",
          "type": "bytes32"
        }
      ],
      "name": "permit",
      "outputs": [],
      "stateMutability": "nonpayable",
      "type": "function"
    },
    {
      "inputs": [],
      "name": "purchase",
      "outputs": [],
      "stateMutability": "payable",
      "type": "function"
    },
    {
      "inputs": [
        {
          "internalType": "uint256",
          "name": "price_",
          "type": "uint256"
        }
      ],
      "name": "putForSale",
      "outputs": [],
      "stateMutability": "nonpayable",
      "type": "function"
    },
    {
      "inputs": [
        {
          "internalType": "uint256",
          "name": "amount_",
          "type": "uint256"
        }
      ],
      "name": "redeemToken",
      "outputs": [],
      "stateMutability": "nonpayable",
      "type": "function"
    },
    {
      "inputs": [],
      "name": "renounceOwnership",
      "outputs": [],
      "stateMutability": "nonpayable",
      "type": "function"
    },
    {
      "inputs": [],
      "name": "salePrice",
      "outputs": [
        {
          "internalType": "uint256",
          "name": "",
          "type": "uint256"
        }
      ],
      "stateMutability": "view",
      "type": "function"
    },
    {
      "inputs": [],
      "name": "symbol",
      "outputs": [
        {
          "internalType": "string",
          "name": "",
          "type": "string"
        }
      ],
      "stateMutability": "view",
      "type": "function"
    },
    {
      "inputs": [],
      "name": "tokenId",
      "outputs": [
        {
          "internalType": "uint256",
          "name": "",
          "type": "uint256"
        }
      ],
      "stateMutability": "view",
      "type": "function"
    },
    {
      "inputs": [],
      "name": "totalSupply",
      "outputs": [
        {
          "internalType": "uint256",
          "name": "",
          "type": "uint256"
        }
      ],
      "stateMutability": "view",
      "type": "function"
    },
    {
      "inputs": [
        {
          "internalType": "address",
          "name": "to",
          "type": "address"
        },
        {
          "internalType": "uint256",
          "name": "amount",
          "type": "uint256"
        }
      ],
      "name": "transfer",
      "outputs": [
        {
          "internalType": "bool",
          "name": "",
          "type": "bool"
        }
      ],
      "stateMutability": "nonpayable",
      "type": "function"
    },
    {
      "inputs": [
        {
          "internalType": "address",
          "name": "from",
          "type": "address"
        },
        {
          "internalType": "address",
          "name": "to",
          "type": "address"
        },
        {
          "internalType": "uint256",
          "name": "amount",
          "type": "uint256"
        }
      ],
      "name": "transferFrom",
      "outputs": [
        {
          "internalType": "bool",
          "name": "",
          "type": "bool"
        }
      ],
      "stateMutability": "nonpayable",
      "type": "function"
    },
    {
      "inputs": [
        {
          "internalType": "uint256",
          "name": "tokenId_",
          "type": "uint256"
        },
        {
          "internalType": "uint256",
          "name": "amount_",
          "type": "uint256"
        }
      ],
      "name": "transferNFT",
      "outputs": [],
      "stateMutability": "nonpayable",
      "type": "function"
    },
    {
      "inputs": [
        {
          "internalType": "address",
          "name": "newOwner",
          "type": "address"
        }
      ],
      "name": "transferOwnership",
      "outputs": [],
      "stateMutability": "nonpayable",
      "type": "function"
    }
  ],
  "bytecode": "0x6101606040523480156200001257600080fd5b5060405162003ead38038062003ead8339818101604052810190620000389190620004ab565b82806040518060400160405280600181526020017f31000000000000000000000000000000000000000000000000000000000000008152508585816003908162000083919062000790565b50806004908162000095919062000790565b505050620000b8620000ac620001a960201b60201c565b620001b160201b60201c565b60008280519060200120905060008280519060200120905060007f8b73c3c69bb8fe3d512ecc4cf759cc79239f7b179b0ffacaa9a75d522b39400f90508260e081815250508161010081815250504660a08181525050620001218184846200027760201b60201c565b608081815250503073ffffffffffffffffffffffffffffffffffffffff1660c08173ffffffffffffffffffffffffffffffffffffffff16815250508061012081815250505050505050508073ffffffffffffffffffffffffffffffffffffffff166101408173ffffffffffffffffffffffffffffffffffffffff168152505050505062000911565b600033905090565b6000600560009054906101000a900473ffffffffffffffffffffffffffffffffffffffff16905081600560006101000a81548173ffffffffffffffffffffffffffffffffffffffff021916908373ffffffffffffffffffffffffffffffffffffffff1602179055508173ffffffffffffffffffffffffffffffffffffffff168173ffffffffffffffffffffffffffffffffffffffff167f8be0079c531659141344cd1fd0a4f28419497f9722a3daafe3b4186f6b6457e060405160405180910390a35050565b6000838383463060405160200162000294959493929190620008b4565b6040516020818303038152906040528051906020012090509392505050565b6000604051905090565b600080fd5b600080fd5b600080fd5b600080fd5b6000601f19601f8301169050919050565b7f4e487b7100000000000000000000000000000000000000000000000000000000600052604160045260246000fd5b6200031c82620002d1565b810181811067ffffffffffffffff821117156200033e576200033d620002e2565b5b80604052505050565b600062000353620002b3565b905062000361828262000311565b919050565b600067ffffffffffffffff821115620003845762000383620002e2565b5b6200038f82620002d1565b9050602081019050919050565b60005b83811015620003bc5780820151818401526020810190506200039f565b60008484015250505050565b6000620003df620003d98462000366565b62000347565b905082815260208101848484011115620003fe57620003fd620002cc565b5b6200040b8482856200039c565b509392505050565b600082601f8301126200042b576200042a620002c7565b5b81516200043d848260208601620003c8565b91505092915050565b600073ffffffffffffffffffffffffffffffffffffffff82169050919050565b6000620004738262000446565b9050919050565b620004858162000466565b81146200049157600080fd5b50565b600081519050620004a5816200047a565b92915050565b600080600060608486031215620004c757620004c6620002bd565b5b600084015167ffffffffffffffff811115620004e857620004e7620002c2565b5b620004f68682870162000413565b935050602084015167ffffffffffffffff8111156200051a5762000519620002c2565b5b620005288682870162000413565b92505060406200053b8682870162000494565b9150509250925092565b600081519050919050565b7f4e487b7100000000000000000000000000000000000000000000000000000000600052602260045260246000fd5b600060028204905060018216806200059857607f821691505b602082108103620005ae57620005ad62000550565b5b50919050565b60008190508160005260206000209050919050565b60006020601f8301049050919050565b600082821b905092915050565b600060088302620006187fffffffffffffffffffffffffffffffffffffffffffffffffffffffffffffffff82620005d9565b620006248683620005d9565b95508019841693508086168417925050509392505050565b6000819050919050565b6000819050919050565b6000620006716200066b62000665846200063c565b62000646565b6200063c565b9050919050565b6000819050919050565b6200068d8362000650565b620006a56200069c8262000678565b848454620005e6565b825550505050565b600090565b620006bc620006ad565b620006c981848462000682565b505050565b5b81811015620006f157620006e5600082620006b2565b600181019050620006cf565b5050565b601f82111562000740576200070a81620005b4565b6200071584620005c9565b8101602085101562000725578190505b6200073d6200073485620005c9565b830182620006ce565b50505b505050565b600082821c905092915050565b6000620007656000198460080262000745565b1980831691505092915050565b600062000780838362000752565b9150826002028217905092915050565b6200079b8262000545565b67ffffffffffffffff811115620007b757620007b6620002e2565b5b620007c382546200057f565b620007d0828285620006f5565b600060209050601f831160018114620008085760008415620007f3578287015190505b620007ff858262000772565b8655506200086f565b601f1984166200081886620005b4565b60005b8281101562000842578489015182556001820191506020850194506020810190506200081b565b868310156200086257848901516200085e601f89168262000752565b8355505b6001600288020188555050505b505050505050565b6000819050919050565b6200088c8162000877565b82525050565b6200089d816200063c565b82525050565b620008ae8162000466565b82525050565b600060a082019050620008cb600083018862000881565b620008da602083018762000881565b620008e9604083018662000881565b620008f8606083018562000892565b620009076080830184620008a3565b9695505050505050565b60805160a05160c05160e0516101005161012051610140516135336200097a600039600081816109ee01528181610d1b0152610e0b01526000611860015260006118a201526000611881015260006117b60152600061180c0152600061183501526135336000f3fe6080604052600436106101815760003560e01c806370a08231116100d1578063a9059cbb1161008a578063dd62ed3e11610064578063dd62ed3e1461058b578063f2fde38b146105c8578063f51f96dd146105f1578063f97ed5091461061c57610181565b8063a9059cbb146104fc578063b3b4712e14610539578063d505accf1461056257610181565b806370a08231146103d8578063715018a6146104155780637ecebe001461042c5780638da5cb5b1461046957806395d89b4114610494578063a457c2d7146104bf57610181565b80631f078ced1161013e5780633644e515116101185780633644e5151461033b5780633950935114610366578063466ccac0146103a357806364edfbf0146103ce57610181565b80631f078ced146102aa57806323b872dd146102d3578063313ce5671461031057610181565b8063013054c21461018657806306fdde03146101af578063095ea7b3146101da578063150b7a021461021757806317d70f7c1461025457806318160ddd1461027f575b600080fd5b34801561019257600080fd5b506101ad60048036038101906101a89190611f36565b610647565b005b3480156101bb57600080fd5b506101c46107ca565b6040516101d19190611ff3565b60405180910390f35b3480156101e657600080fd5b5061020160048036038101906101fc9190612073565b61085c565b60405161020e91906120ce565b60405180910390f35b34801561022357600080fd5b5061023e6004803603810190610239919061221e565b61087f565b60405161024b91906122dc565b60405180910390f35b34801561026057600080fd5b50610269610893565b6040516102769190612306565b60405180910390f35b34801561028b57600080fd5b50610294610899565b6040516102a19190612306565b60405180910390f35b3480156102b657600080fd5b506102d160048036038101906102cc9190611f36565b6108a3565b005b3480156102df57600080fd5b506102fa60048036038101906102f59190612321565b6108c8565b60405161030791906120ce565b60405180910390f35b34801561031c57600080fd5b506103256108f7565b6040516103329190612390565b60405180910390f35b34801561034757600080fd5b50610350610900565b60405161035d91906123c4565b60405180910390f35b34801561037257600080fd5b5061038d60048036038101906103889190612073565b61090f565b60405161039a91906120ce565b60405180910390f35b3480156103af57600080fd5b506103b8610946565b6040516103c591906120ce565b60405180910390f35b6103d6610959565b005b3480156103e457600080fd5b506103ff60048036038101906103fa91906123df565b610ab5565b60405161040c9190612306565b60405180910390f35b34801561042157600080fd5b5061042a610afd565b005b34801561043857600080fd5b50610453600480360381019061044e91906123df565b610b11565b6040516104609190612306565b60405180910390f35b34801561047557600080fd5b5061047e610b61565b60405161048b919061241b565b60405180910390f35b3480156104a057600080fd5b506104a9610b8b565b6040516104b69190611ff3565b60405180910390f35b3480156104cb57600080fd5b506104e660048036038101906104e19190612073565b610c1d565b6040516104f391906120ce565b60405180910390f35b34801561050857600080fd5b50610523600480360381019061051e9190612073565b610c94565b60405161053091906120ce565b60405180910390f35b34801561054557600080fd5b50610560600480360381019061055b9190612436565b610cb7565b005b34801561056e57600080fd5b50610589600480360381019061058491906124ce565b610ead565b005b34801561059757600080fd5b506105b260048036038101906105ad9190612570565b610fef565b6040516105bf9190612306565b60405180910390f35b3480156105d457600080fd5b506105ef60048036038101906105ea91906123df565b611076565b005b3480156105fd57600080fd5b506106066110f9565b6040516106139190612306565b60405180910390f35b34801561062857600080fd5b506106316110ff565b60405161063e91906120ce565b60405180910390f35b600a60009054906101000a900460ff16610696576040517f08c379a000000000000000000000000000000000000000000000000000000000815260040161068d906125fc565b60405180910390fd5b803073ffffffffffffffffffffffffffffffffffffffff166370a08231336040518263ffffffff1660e01b81526004016106d0919061241b565b602060405180830381865afa1580156106ed573d6000803e3d6000fd5b505050506040513d601f19601f820116820180604052508101906107119190612631565b14610751576040517f08c379a0000000000000000000000000000000000000000000000000000000008152600401610748906126aa565b60405180910390fd5b600061075b610899565b826107669190612728565b6009546107739190612759565b905061077f3383611112565b3373ffffffffffffffffffffffffffffffffffffffff166108fc829081150290604051600060405180830381858888f193505050501580156107c5573d6000803e3d6000fd5b505050565b6060600380546107d9906127ca565b80601f0160208091040260200160405190810160405280929190818152602001828054610805906127ca565b80156108525780601f1061082757610100808354040283529160200191610852565b820191906000526020600020905b81548152906001019060200180831161083557829003601f168201915b5050505050905090565b6000806108676112df565b90506108748185856112e7565b600191505092915050565b600063150b7a0260e01b9050949350505050565b60085481565b6000600254905090565b806009819055506001600a60016101000a81548160ff02191690831515021790555050565b6000806108d36112df565b90506108e08582856114b0565b6108eb85858561153c565b60019150509392505050565b60006012905090565b600061090a6117b2565b905090565b60008061091a6112df565b905061093b81858561092c8589610fef565b61093691906127fb565b6112e7565b600191505092915050565b600a60019054906101000a900460ff1681565b600a60019054906101000a900460ff166109a8576040517f08c379a000000000000000000000000000000000000000000000000000000000815260040161099f9061287b565b60405180910390fd5b60095434146109ec576040517f08c379a00000000000000000000000000000000000000000000000000000000081526004016109e3906128e7565b60405180910390fd5b7f000000000000000000000000000000000000000000000000000000000000000073ffffffffffffffffffffffffffffffffffffffff166323b872dd30336008546040518463ffffffff1660e01b8152600401610a4b93929190612907565b600060405180830381600087803b158015610a6557600080fd5b505af1158015610a79573d6000803e3d6000fd5b505050506000600a60016101000a81548160ff0219169083151502179055506001600a60006101000a81548160ff021916908315150217905550565b60008060008373ffffffffffffffffffffffffffffffffffffffff1673ffffffffffffffffffffffffffffffffffffffff168152602001908152602001600020549050919050565b610b056118cc565b610b0f600061194a565b565b6000610b5a600660008473ffffffffffffffffffffffffffffffffffffffff1673ffffffffffffffffffffffffffffffffffffffff168152602001908152602001600020611a10565b9050919050565b6000600560009054906101000a900473ffffffffffffffffffffffffffffffffffffffff16905090565b606060048054610b9a906127ca565b80601f0160208091040260200160405190810160405280929190818152602001828054610bc6906127ca565b8015610c135780601f10610be857610100808354040283529160200191610c13565b820191906000526020600020905b815481529060010190602001808311610bf657829003601f168201915b5050505050905090565b600080610c286112df565b90506000610c368286610fef565b905083811015610c7b576040517f08c379a0000000000000000000000000000000000000000000000000000000008152600401610c72906129b0565b60405180910390fd5b610c8882868684036112e7565b60019250505092915050565b600080610c9f6112df565b9050610cac81858561153c565b600191505092915050565b610cbf6118cc565b60008111610d02576040517f08c379a0000000000000000000000000000000000000000000000000000000008152600401610cf990612a42565b60405180910390fd5b3373ffffffffffffffffffffffffffffffffffffffff167f000000000000000000000000000000000000000000000000000000000000000073ffffffffffffffffffffffffffffffffffffffff16636352211e846040518263ffffffff1660e01b8152600401610d729190612306565b602060405180830381865afa158015610d8f573d6000803e3d6000fd5b505050506040513d601f19601f82011682018060405250810190610db39190612a77565b73ffffffffffffffffffffffffffffffffffffffff1614610e09576040517f08c379a0000000000000000000000000000000000000000000000000000000008152600401610e0090612af0565b60405180910390fd5b7f000000000000000000000000000000000000000000000000000000000000000073ffffffffffffffffffffffffffffffffffffffff166342842e0e3330856040518463ffffffff1660e01b8152600401610e6693929190612907565b600060405180830381600087803b158015610e8057600080fd5b505af1158015610e94573d6000803e3d6000fd5b5050505081600881905550610ea93382611a1e565b5050565b83421115610ef0576040517f08c379a0000000000000000000000000000000000000000000000000000000008152600401610ee790612b5c565b60405180910390fd5b60007f6e71edae12b1b97f4d1f60370fef10105fa2faae0126114a169c64845d6126c9888888610f1f8c611b74565b89604051602001610f3596959493929190612b7c565b6040516020818303038152906040528051906020012090506000610f5882611bd2565b90506000610f6882878787611bec565b90508973ffffffffffffffffffffffffffffffffffffffff168173ffffffffffffffffffffffffffffffffffffffff1614610fd8576040517f08c379a0000000000000000000000000000000000000000000000000000000008152600401610fcf90612c29565b60405180910390fd5b610fe38a8a8a6112e7565b50505050505050505050565b6000600160008473ffffffffffffffffffffffffffffffffffffffff1673ffffffffffffffffffffffffffffffffffffffff16815260200190815260200160002060008373ffffffffffffffffffffffffffffffffffffffff1673ffffffffffffffffffffffffffffffffffffffff16815260200190815260200160002054905092915050565b61107e6118cc565b600073ffffffffffffffffffffffffffffffffffffffff168173ffffffffffffffffffffffffffffffffffffffff16036110ed576040517f08c379a00000000000000000000000000000000000000000000000000000000081526004016110e490612cbb565b60405180910390fd5b6110f68161194a565b50565b60095481565b600a60009054906101000a900460ff1681565b600073ffffffffffffffffffffffffffffffffffffffff168273ffffffffffffffffffffffffffffffffffffffff1603611181576040517f08c379a000000000000000000000000000000000000000000000000000000000815260040161117890612d4d565b60405180910390fd5b61118d82600083611c17565b60008060008473ffffffffffffffffffffffffffffffffffffffff1673ffffffffffffffffffffffffffffffffffffffff16815260200190815260200160002054905081811015611213576040517f08c379a000000000000000000000000000000000000000000000000000000000815260040161120a90612ddf565b60405180910390fd5b8181036000808573ffffffffffffffffffffffffffffffffffffffff1673ffffffffffffffffffffffffffffffffffffffff1681526020019081526020016000208190555081600260008282540392505081905550600073ffffffffffffffffffffffffffffffffffffffff168373ffffffffffffffffffffffffffffffffffffffff167fddf252ad1be2c89b69c2b068fc378daa952ba7f163c4a11628f55a4df523b3ef846040516112c69190612306565b60405180910390a36112da83600084611c1c565b505050565b600033905090565b600073ffffffffffffffffffffffffffffffffffffffff168373ffffffffffffffffffffffffffffffffffffffff1603611356576040517f08c379a000000000000000000000000000000000000000000000000000000000815260040161134d90612e71565b60405180910390fd5b600073ffffffffffffffffffffffffffffffffffffffff168273ffffffffffffffffffffffffffffffffffffffff16036113c5576040517f08c379a00000000000000000000000000000000000000000000000000000000081526004016113bc90612f03565b60405180910390fd5b80600160008573ffffffffffffffffffffffffffffffffffffffff1673ffffffffffffffffffffffffffffffffffffffff16815260200190815260200160002060008473ffffffffffffffffffffffffffffffffffffffff1673ffffffffffffffffffffffffffffffffffffffff168152602001908152602001600020819055508173ffffffffffffffffffffffffffffffffffffffff168373ffffffffffffffffffffffffffffffffffffffff167f8c5be1e5ebec7d5bd14f71427d1e84f3dd0314c0f7b2291e5b200ac8c7c3b925836040516114a39190612306565b60405180910390a3505050565b60006114bc8484610fef565b90507fffffffffffffffffffffffffffffffffffffffffffffffffffffffffffffffff81146115365781811015611528576040517f08c379a000000000000000000000000000000000000000000000000000000000815260040161151f90612f6f565b60405180910390fd5b61153584848484036112e7565b5b50505050565b600073ffffffffffffffffffffffffffffffffffffffff168373ffffffffffffffffffffffffffffffffffffffff16036115ab576040517f08c379a00000000000000000000000000000000000000000000000000000000081526004016115a290613001565b60405180910390fd5b600073ffffffffffffffffffffffffffffffffffffffff168273ffffffffffffffffffffffffffffffffffffffff160361161a576040517f08c379a000000000000000000000000000000000000000000000000000000000815260040161161190613093565b60405180910390fd5b611625838383611c17565b60008060008573ffffffffffffffffffffffffffffffffffffffff1673ffffffffffffffffffffffffffffffffffffffff168152602001908152602001600020549050818110156116ab576040517f08c379a00000000000000000000000000000000000000000000000000000000081526004016116a290613125565b60405180910390fd5b8181036000808673ffffffffffffffffffffffffffffffffffffffff1673ffffffffffffffffffffffffffffffffffffffff16815260200190815260200160002081905550816000808573ffffffffffffffffffffffffffffffffffffffff1673ffffffffffffffffffffffffffffffffffffffff168152602001908152602001600020600082825401925050819055508273ffffffffffffffffffffffffffffffffffffffff168473ffffffffffffffffffffffffffffffffffffffff167fddf252ad1be2c89b69c2b068fc378daa952ba7f163c4a11628f55a4df523b3ef846040516117999190612306565b60405180910390a36117ac848484611c1c565b50505050565b60007f000000000000000000000000000000000000000000000000000000000000000073ffffffffffffffffffffffffffffffffffffffff163073ffffffffffffffffffffffffffffffffffffffff1614801561182e57507f000000000000000000000000000000000000000000000000000000000000000046145b1561185b577f000000000000000000000000000000000000000000000000000000000000000090506118c9565b6118c67f00000000000000000000000000000000000000000000000000000000000000007f00000000000000000000000000000000000000000000000000000000000000007f0000000000000000000000000000000000000000000000000000000000000000611c21565b90505b90565b6118d46112df565b73ffffffffffffffffffffffffffffffffffffffff166118f2610b61565b73ffffffffffffffffffffffffffffffffffffffff1614611948576040517f08c379a000000000000000000000000000000000000000000000000000000000815260040161193f90613191565b60405180910390fd5b565b6000600560009054906101000a900473ffffffffffffffffffffffffffffffffffffffff16905081600560006101000a81548173ffffffffffffffffffffffffffffffffffffffff021916908373ffffffffffffffffffffffffffffffffffffffff1602179055508173ffffffffffffffffffffffffffffffffffffffff168173ffffffffffffffffffffffffffffffffffffffff167f8be0079c531659141344cd1fd0a4f28419497f9722a3daafe3b4186f6b6457e060405160405180910390a35050565b600081600001549050919050565b600073ffffffffffffffffffffffffffffffffffffffff168273ffffffffffffffffffffffffffffffffffffffff1603611a8d576040517f08c379a0000000000000000000000000000000000000000000000000000000008152600401611a84906131fd565b60405180910390fd5b611a9960008383611c17565b8060026000828254611aab91906127fb565b92505081905550806000808473ffffffffffffffffffffffffffffffffffffffff1673ffffffffffffffffffffffffffffffffffffffff168152602001908152602001600020600082825401925050819055508173ffffffffffffffffffffffffffffffffffffffff16600073ffffffffffffffffffffffffffffffffffffffff167fddf252ad1be2c89b69c2b068fc378daa952ba7f163c4a11628f55a4df523b3ef83604051611b5c9190612306565b60405180910390a3611b7060008383611c1c565b5050565b600080600660008473ffffffffffffffffffffffffffffffffffffffff1673ffffffffffffffffffffffffffffffffffffffff1681526020019081526020016000209050611bc181611a10565b9150611bcc81611c5b565b50919050565b6000611be5611bdf6117b2565b83611c71565b9050919050565b6000806000611bfd87878787611ca4565b91509150611c0a81611d86565b8192505050949350505050565b505050565b505050565b60008383834630604051602001611c3c95949392919061321d565b6040516020818303038152906040528051906020012090509392505050565b6001816000016000828254019250508190555050565b60008282604051602001611c869291906132e8565b60405160208183030381529060405280519060200120905092915050565b6000807f7fffffffffffffffffffffffffffffff5d576e7357a4501ddfe92f46681b20a08360001c1115611cdf576000600391509150611d7d565b600060018787878760405160008152602001604052604051611d04949392919061331f565b6020604051602081039080840390855afa158015611d26573d6000803e3d6000fd5b505050602060405103519050600073ffffffffffffffffffffffffffffffffffffffff168173ffffffffffffffffffffffffffffffffffffffff1603611d7457600060019250925050611d7d565b80600092509250505b94509492505050565b60006004811115611d9a57611d99613364565b5b816004811115611dad57611dac613364565b5b0315611ee95760016004811115611dc757611dc6613364565b5b816004811115611dda57611dd9613364565b5b03611e1a576040517f08c379a0000000000000000000000000000000000000000000000000000000008152600401611e11906133df565b60405180910390fd5b60026004811115611e2e57611e2d613364565b5b816004811115611e4157611e40613364565b5b03611e81576040517f08c379a0000000000000000000000000000000000000000000000000000000008152600401611e789061344b565b60405180910390fd5b60036004811115611e9557611e94613364565b5b816004811115611ea857611ea7613364565b5b03611ee8576040517f08c379a0000000000000000000000000000000000000000000000000000000008152600401611edf906134dd565b60405180910390fd5b5b50565b6000604051905090565b600080fd5b600080fd5b6000819050919050565b611f1381611f00565b8114611f1e57600080fd5b50565b600081359050611f3081611f0a565b92915050565b600060208284031215611f4c57611f4b611ef6565b5b6000611f5a84828501611f21565b91505092915050565b600081519050919050565b600082825260208201905092915050565b60005b83811015611f9d578082015181840152602081019050611f82565b60008484015250505050565b6000601f19601f8301169050919050565b6000611fc582611f63565b611fcf8185611f6e565b9350611fdf818560208601611f7f565b611fe881611fa9565b840191505092915050565b6000602082019050818103600083015261200d8184611fba565b905092915050565b600073ffffffffffffffffffffffffffffffffffffffff82169050919050565b600061204082612015565b9050919050565b61205081612035565b811461205b57600080fd5b50565b60008135905061206d81612047565b92915050565b6000806040838503121561208a57612089611ef6565b5b60006120988582860161205e565b92505060206120a985828601611f21565b9150509250929050565b60008115159050919050565b6120c8816120b3565b82525050565b60006020820190506120e360008301846120bf565b92915050565b600080fd5b600080fd5b7f4e487b7100000000000000000000000000000000000000000000000000000000600052604160045260246000fd5b61212b82611fa9565b810181811067ffffffffffffffff8211171561214a576121496120f3565b5b80604052505050565b600061215d611eec565b90506121698282612122565b919050565b600067ffffffffffffffff821115612189576121886120f3565b5b61219282611fa9565b9050602081019050919050565b82818337600083830152505050565b60006121c16121bc8461216e565b612153565b9050828152602081018484840111156121dd576121dc6120ee565b5b6121e884828561219f565b509392505050565b600082601f830112612205576122046120e9565b5b81356122158482602086016121ae565b91505092915050565b6000806000806080858703121561223857612237611ef6565b5b60006122468782880161205e565b94505060206122578782880161205e565b935050604061226887828801611f21565b925050606085013567ffffffffffffffff81111561228957612288611efb565b5b612295878288016121f0565b91505092959194509250565b60007fffffffff0000000000000000000000000000000000000000000000000000000082169050919050565b6122d6816122a1565b82525050565b60006020820190506122f160008301846122cd565b92915050565b61230081611f00565b82525050565b600060208201905061231b60008301846122f7565b92915050565b60008060006060848603121561233a57612339611ef6565b5b60006123488682870161205e565b93505060206123598682870161205e565b925050604061236a86828701611f21565b9150509250925092565b600060ff82169050919050565b61238a81612374565b82525050565b60006020820190506123a56000830184612381565b92915050565b6000819050919050565b6123be816123ab565b82525050565b60006020820190506123d960008301846123b5565b92915050565b6000602082840312156123f5576123f4611ef6565b5b60006124038482850161205e565b91505092915050565b61241581612035565b82525050565b6000602082019050612430600083018461240c565b92915050565b6000806040838503121561244d5761244c611ef6565b5b600061245b85828601611f21565b925050602061246c85828601611f21565b9150509250929050565b61247f81612374565b811461248a57600080fd5b50565b60008135905061249c81612476565b92915050565b6124ab816123ab565b81146124b657600080fd5b50565b6000813590506124c8816124a2565b92915050565b600080600080600080600060e0888a0312156124ed576124ec611ef6565b5b60006124fb8a828b0161205e565b975050602061250c8a828b0161205e565b965050604061251d8a828b01611f21565b955050606061252e8a828b01611f21565b945050608061253f8a828b0161248d565b93505060a06125508a828b016124b9565b92505060c06125618a828b016124b9565b91505092959891949750929550565b6000806040838503121561258757612586611ef6565b5b60006125958582860161205e565b92505060206125a68582860161205e565b9150509250929050565b7f43414e27545f52454445454d5f544f4b454e5f59455400000000000000000000600082015250565b60006125e6601683611f6e565b91506125f1826125b0565b602082019050919050565b60006020820190508181036000830152612615816125d9565b9050919050565b60008151905061262b81611f0a565b92915050565b60006020828403121561264757612646611ef6565b5b60006126558482850161261c565b91505092915050565b7f494e56414c49445f414d4f554e545f464f525f524544454d5054494f4e000000600082015250565b6000612694601d83611f6e565b915061269f8261265e565b602082019050919050565b600060208201905081810360008301526126c381612687565b9050919050565b7f4e487b7100000000000000000000000000000000000000000000000000000000600052601260045260246000fd5b7f4e487b7100000000000000000000000000000000000000000000000000000000600052601160045260246000fd5b600061273382611f00565b915061273e83611f00565b92508261274e5761274d6126ca565b5b828204905092915050565b600061276482611f00565b915061276f83611f00565b925082820261277d81611f00565b91508282048414831517612794576127936126f9565b5b5092915050565b7f4e487b7100000000000000000000000000000000000000000000000000000000600052602260045260246000fd5b600060028204905060018216806127e257607f821691505b6020821081036127f5576127f461279b565b5b50919050565b600061280682611f00565b915061281183611f00565b9250828201905080821115612829576128286126f9565b5b92915050565b7f4e4f545f464f525f53414c450000000000000000000000000000000000000000600082015250565b6000612865600c83611f6e565b91506128708261282f565b602082019050919050565b6000602082019050818103600083015261289481612858565b9050919050565b7f494e56414c49445f53414c455f50524943450000000000000000000000000000600082015250565b60006128d1601283611f6e565b91506128dc8261289b565b602082019050919050565b60006020820190508181036000830152612900816128c4565b9050919050565b600060608201905061291c600083018661240c565b612929602083018561240c565b61293660408301846122f7565b949350505050565b7f45524332303a2064656372656173656420616c6c6f77616e63652062656c6f7760008201527f207a65726f000000000000000000000000000000000000000000000000000000602082015250565b600061299a602583611f6e565b91506129a58261293e565b604082019050919050565b600060208201905081810360008301526129c98161298d565b9050919050565b7f414d4f554e545f53484f554c445f42455f475245415445525f5448414e5f5a4560008201527f524f000000000000000000000000000000000000000000000000000000000000602082015250565b6000612a2c602283611f6e565b9150612a37826129d0565b604082019050919050565b60006020820190508181036000830152612a5b81612a1f565b9050919050565b600081519050612a7181612047565b92915050565b600060208284031215612a8d57612a8c611ef6565b5b6000612a9b84828501612a62565b91505092915050565b7f53454e445f49535f4e4f545f4f574e4552000000000000000000000000000000600082015250565b6000612ada601183611f6e565b9150612ae582612aa4565b602082019050919050565b60006020820190508181036000830152612b0981612acd565b9050919050565b7f45524332305065726d69743a206578706972656420646561646c696e65000000600082015250565b6000612b46601d83611f6e565b9150612b5182612b10565b602082019050919050565b60006020820190508181036000830152612b7581612b39565b9050919050565b600060c082019050612b9160008301896123b5565b612b9e602083018861240c565b612bab604083018761240c565b612bb860608301866122f7565b612bc560808301856122f7565b612bd260a08301846122f7565b979650505050505050565b7f45524332305065726d69743a20696e76616c6964207369676e61747572650000600082015250565b6000612c13601e83611f6e565b9150612c1e82612bdd565b602082019050919050565b60006020820190508181036000830152612c4281612c06565b9050919050565b7f4f776e61626c653a206e6577206f776e657220697320746865207a65726f206160008201527f6464726573730000000000000000000000000000000000000000000000000000602082015250565b6000612ca5602683611f6e565b9150612cb082612c49565b604082019050919050565b60006020820190508181036000830152612cd481612c98565b9050919050565b7f45524332303a206275726e2066726f6d20746865207a65726f2061646472657360008201527f7300000000000000000000000000000000000000000000000000000000000000602082015250565b6000612d37602183611f6e565b9150612d4282612cdb565b604082019050919050565b60006020820190508181036000830152612d6681612d2a565b9050919050565b7f45524332303a206275726e20616d6f756e7420657863656564732062616c616e60008201527f6365000000000000000000000000000000000000000000000000000000000000602082015250565b6000612dc9602283611f6e565b9150612dd482612d6d565b604082019050919050565b60006020820190508181036000830152612df881612dbc565b9050919050565b7f45524332303a20617070726f76652066726f6d20746865207a65726f2061646460008201527f7265737300000000000000000000000000000000000000000000000000000000602082015250565b6000612e5b602483611f6e565b9150612e6682612dff565b604082019050919050565b60006020820190508181036000830152612e8a81612e4e565b9050919050565b7f45524332303a20617070726f766520746f20746865207a65726f20616464726560008201527f7373000000000000000000000000000000000000000000000000000000000000602082015250565b6000612eed602283611f6e565b9150612ef882612e91565b604082019050919050565b60006020820190508181036000830152612f1c81612ee0565b9050919050565b7f45524332303a20696e73756666696369656e7420616c6c6f77616e6365000000600082015250565b6000612f59601d83611f6e565b9150612f6482612f23565b602082019050919050565b60006020820190508181036000830152612f8881612f4c565b9050919050565b7f45524332303a207472616e736665722066726f6d20746865207a65726f20616460008201527f6472657373000000000000000000000000000000000000000000000000000000602082015250565b6000612feb602583611f6e565b9150612ff682612f8f565b604082019050919050565b6000602082019050818103600083015261301a81612fde565b9050919050565b7f45524332303a207472616e7366657220746f20746865207a65726f206164647260008201527f6573730000000000000000000000000000000000000000000000000000000000602082015250565b600061307d602383611f6e565b915061308882613021565b604082019050919050565b600060208201905081810360008301526130ac81613070565b9050919050565b7f45524332303a207472616e7366657220616d6f756e742065786365656473206260008201527f616c616e63650000000000000000000000000000000000000000000000000000602082015250565b600061310f602683611f6e565b915061311a826130b3565b604082019050919050565b6000602082019050818103600083015261313e81613102565b9050919050565b7f4f776e61626c653a2063616c6c6572206973206e6f7420746865206f776e6572600082015250565b600061317b602083611f6e565b915061318682613145565b602082019050919050565b600060208201905081810360008301526131aa8161316e565b9050919050565b7f45524332303a206d696e7420746f20746865207a65726f206164647265737300600082015250565b60006131e7601f83611f6e565b91506131f2826131b1565b602082019050919050565b60006020820190508181036000830152613216816131da565b9050919050565b600060a08201905061323260008301886123b5565b61323f60208301876123b5565b61324c60408301866123b5565b61325960608301856122f7565b613266608083018461240c565b9695505050505050565b600081905092915050565b7f1901000000000000000000000000000000000000000000000000000000000000600082015250565b60006132b1600283613270565b91506132bc8261327b565b600282019050919050565b6000819050919050565b6132e26132dd826123ab565b6132c7565b82525050565b60006132f3826132a4565b91506132ff82856132d1565b60208201915061330f82846132d1565b6020820191508190509392505050565b600060808201905061333460008301876123b5565b6133416020830186612381565b61334e60408301856123b5565b61335b60608301846123b5565b95945050505050565b7f4e487b7100000000000000000000000000000000000000000000000000000000600052602160045260246000fd5b7f45434453413a20696e76616c6964207369676e61747572650000000000000000600082015250565b60006133c9601883611f6e565b91506133d482613393565b602082019050919050565b600060208201905081810360008301526133f8816133bc565b9050919050565b7f45434453413a20696e76616c6964207369676e6174757265206c656e67746800600082015250565b6000613435601f83611f6e565b9150613440826133ff565b602082019050919050565b6000602082019050818103600083015261346481613428565b9050919050565b7f45434453413a20696e76616c6964207369676e6174757265202773272076616c60008201527f7565000000000000000000000000000000000000000000000000000000000000602082015250565b60006134c7602283611f6e565b91506134d28261346b565b604082019050919050565b600060208201905081810360008301526134f6816134ba565b905091905056fea2646970667358221220224078e8d37f536ddfce30314b7a0a1a1d1df799300ed6851f484fdbbb7238af64736f6c63430008110033",
  "linkReferences": {},
  "deployedLinkReferences": {}
}